:10400000007F0020F99F0000A19E0000F59F0000A6
:10401000F59F0000F59F0000F59F0000F59F000050
:10402000000000000000000000000000F59F0000FC
:10403000F59F000000000000F59F0000F59F0000C4
:104040000000000000000000000000000000000070
:104050000000000000000000000000000000000060
:104060000000000000000000000000000000000050
:104070000000000000000000000000000000000040
:104080000000000000000000000000000000000030
:104090000000000000000000000000000000000020
:1040A0000000000000000000000000000000000010
:1040B0000000000000000000000000000000000000
:1040C00010B5054C237833B9044B13B10448AFF352
:1040D00000800123237010BD980200200000000022
:1040E000202A010008B5034B1BB103490348AFF375
:1040F000008008BD000000009C020020202A010072
:10410000BFF34F8F0549064BCA6802F4E0621343C0
:10411000CB60BFF34F8F00BFFDE700BF00ED00E0B5
:104120000400FA05FFFFFFFF2DE9F0411E46A2F54E
:10413000FA73322B88BF304B304C069D84BF01226E
:104140001A7080468CBF206810460F460BF048F965
:1041500027A3D3E900230BF0ADF90022284B0BF085
:10416000D3FA0BF057FCC0F1BD00B8F5FA7F206020
:104170008CBF214A2068234B85BF01211170404428
:1041800040F23B128CBF1A601860B7F5FA7F8CBF03
:10419000194A21681C4B85BF01211170C919CF2212
:1041A0008CBF1A601960A6F1480240F6C8539A42C3
:1041B00089BF114B154B01221A7098BF1E60012D4B
:1041C00089BF0D4B124B01221A7098BF1D60079BCF
:1041D0000A2B97BFDDED077A074B0E4BF8EEE77A17
:1041E00086BF01221A70C3ED007ABDE8F08100BFDE
:1041F000CDCCCCCCCCCC1C40CC0200200400002088
:1042000000003440B4020020C0020020080000205A
:104210000000002010000020074B084A1B681268AD
:10422000022193FBF1F392FBF1F29B1A00EE103A9C
:10423000B8EEC00A704700BFB4020020080000209A
:10424000074B084A1B681268022193FBF1F392FBAB
:10425000F1F2134400EE103AB8EEC00A704700BF06
:10426000B402002008000020074B084A1B681268AF
:10427000022193FBF1F392FBF1F29B1A00EE103A4C
:10428000B8EEC00A704700BFC0020020080000203E
:10429000074B084A1B681268022193FBF1F392FB5B
:1042A000F1F2134400EE103AB8EEC00A704700BFB6
:1042B000C0020020080000200A4B0B4A1B6812684D
:1042C000022093FBF0F192FBF0F2511A002993FBCC
:1042D000F0F3D6BF9B1A07EE901A07EE903AB8EEAD
:1042E000E70A7047B4020020080000200A4B0B4A7E
:1042F0001B681268022093FBF0F192FBF0F2511A56
:10430000002993FBF0F3D6BF9B1A07EE901A07EE35
:10431000903AB8EEE70A7047C0020020080000207B
:1043200010B509200AF0BEFA012804462BD102205C
:104330000AF0B8FA002859D1214603200AF0A6FA5B
:10434000354B1B68012B18D1344935480AF015F953
:1043500064200AF029FB334931480AF00EF9642041
:104360000AF022FB2F492E480AF007F964200AF0D0
:104370001BFB2D492A480AF000F94FF47A700AF025
:1043800013FBFFF7BDFE08200AF08CFA01282FD09E
:1043900007200AF087FA01282CD006200AF082FABA
:1043A000012829D005200AF07DFA012826D0122004
:1043B0000AF078FA012823D011200AF073FA0128B4
:1043C00020D010200AF06EFA01281DD00F200AF02C
:1043D00069FA01281AD00E200AF064FA012817D0D1
:1043E00004200AF05FFA012814D010BD0020FCE779
:1043F0000A20FAE71420F8E71E20F6E72820F4E761
:104400003220F2E73C20F0E74620EEE75020ECE7D0
:104410005A20EAE76420E8E7000000205821010064
:10442000741100206A2301007421010008B50348BB
:1044300001F02CFEBDE808400AF0FABA6C04002036
:104440007FB5284C2368064633B9274B1968274B9C
:1044500018680CF0EBFA20602368254D13B92B681F
:10446000012B05D1214923480AF096F80023236047
:104470001E491D480AF03BF91F491C480AF050F933
:104480001A4901A80AF042F91C4901A80AF092F958
:10449000014616480AF02BF901A80AF0BEF876B1D9
:1044A000124901A80AF032F9314601A80AF08FF941
:1044B00001460E480AF01BF901A80AF0AEF80B49B4
:1044C00001A80AF023F90E4901A80AF073F9014680
:1044D00006480AF00CF901A80AF09FF800232B60A7
:1044E00004B070BD0C000020D0020020E4020020C7
:1044F0005403002074110020A02201007721010044
:104500008921010061B1012802D1022908BF0121DE
:10451000044BDB680E2202FB013131F80E0C7047B0
:104520000121F5E75C03002005EE103AA44B9FED56
:10453000A57AD3ED007ADFEDA46A67EE877A0128C9
:1045400005EE902A87EEA67A57D1022940F0DA804C
:104550009E4BDB681A88022A40F0A2805B8807EE37
:10456000903AF8EEE76AF4EEC06AF1EE10FA08D479
:10457000F4EEE06AF1EE10FAD4BFB8EE670AB0EEDE
:10458000600A30EE411AF8EEE55AB8EEC55A21EE4F
:10459000251A8F4B8F4AC1EE057AC3ED007A8E4BF8
:1045A000197899B977EEC76A37EE877A8B49C2EDE9
:1045B000006A76EE876A81ED007AB6EE007A884965
:1045C00066EE876AC1ED006A0121197092ED007AEA
:1045D000F4EEC77AF1EE10FA08DB804AD2ED006AF9
:1045E000F4EEE67AF1EE10FA40F25881F4EEC77A72
:1045F000F1EE10FA6BD4794AD9E0022850D10129A2
:1046000040F0FA80714BDA681388012B40F0488142
:10461000538807EE903AF8EEE76AF4EEC06AF1EEDE
:1046200010FA40D4F4EEE06AF1EE10FA3EDCF8EE57
:10463000677A77EEC17AF8EEE56AB8EEC56A67EE9A
:10464000A66A684B6849C6EE867AC3ED007A674B66
:10465000187898B937EE876A77EEC76A6448C1ED73
:10466000006A76EE866A80ED006AB6EE006A6148FE
:1046700066EE866AC0ED006A01201870D1ED006A0E
:10468000F4EEE67AF1EE10FA13DB594991ED006A87
:10469000F4EEC67AF1EE10FA0BD8564BD3ED007A51
:1046A000B0EE670A7047F0EE407AC2E7F0EE607A4B
:1046B000BFE7F4EEE67AF1EE10FA08D44C49D1EDFA
:1046C000006AF4EEE67AF1EE10FA40F3E980002297
:1046D0001A70E5E7F0EE407AAAE0F0EE607AA7E023
:1046E000F4EEE67AF1EE10FAF1D43C49D1ED006A2D
:1046F000F4EEE67AF1EE10FAE9DCD389022BCFD1A1
:10470000138A2CE70129CBD1304BDB681A88012AA8
:10471000C6D15B8807EE903AF8EEE76AF4EEC06A1D
:10472000F1EE10FA08D4F4EEE06AF1EE10FAD4BF1C
:10473000B8EE670AB0EE600A30EE411AF8EEE55ABC
:10474000B8EEC55A21EE251A264B274AC1EE057A46
:10475000C3ED007A254B197899B977EEC76A37EE21
:10476000877A2349C2ED006A76EE876A81ED007A86
:10477000B6EE007A1F4966EE876AC1ED006A012134
:10478000197092ED007AF4EEC77AF1EE10FA08DBB8
:10479000174AD2ED006AF4EEE67AF1EE10FA7FF6EF
:1047A0007CAFF4EEC77AF1EE10FA90D4104A92ED95
:1047B000007AF4EEC77AF1EE10FA7FF771AF86E770
:1047C00010000020000048420000C8425C030020A6
:1047D00018030020280300204E030020200300209F
:1047E0000803002014030020240300204D030020B0
:1047F0001C0300200403002002297FF451AF2B4B3F
:10480000DA681388022B7FF478AF538807EE903A6A
:10481000F8EEE76AF4EEC06AF1EE10FA3FF55AAF2F
:10482000F4EEE06AF1EE10FA3FF757AFF8EE677A70
:1048300077EEC17AF8EEE56AB8EEC56A67EEA66A69
:104840001B4B1C49C6EE867AC3ED007A1A4B1878CA
:1048500098B937EE876A77EEC76A1848C1ED006AE3
:1048600076EE866A80ED006AB6EE006A144866EE5F
:10487000866AC0ED006A01201870D1ED006AF4EE7E
:10488000E67AF1EE10FAFFF62BAF0C4991ED006AD3
:10489000F4EEC67AF1EE10FA3FF622AF084BFDE6D1
:1048A000D389012B7FF4FCAE138A33E75C0300202D
:1048B00018030020280300204E03002020030020BE
:1048C0000803002005EE103AA44B9FEDA57AD3ED26
:1048D000007ADFEDA46A67EE877A012805EE902A58
:1048E00087EEA67A57D1022940F0DA809E4BDB682A
:1048F0001A88022A40F0A2809B8807EE903AF8EED0
:10490000E76AF4EEC06AF1EE10FA08D4F4EEE06A59
:10491000F1EE10FAD4BFB8EE670AB0EE600A30EEDE
:10492000411AF8EEE55AB8EEC55A21EE251A8F4B1A
:104930008F4AC1EE057AC3ED007A8E4B197899B98A
:1049400077EEC76A37EE877A8B49C2ED006A76EE5A
:10495000876A81ED007AB6EE007A884966EE876A4A
:10496000C1ED006A0121197092ED007AF4EEC77A68
:10497000F1EE10FA08DB804AD2ED006AF4EEE67A36
:10498000F1EE10FA40F25881F4EEC77AF1EE10FA27
:104990006BD4794AD9E0022850D1012940F0FA803D
:1049A000714BDA681388012B40F04881938807EE39
:1049B000903AF8EEE76AF4EEC06AF1EE10FA40D4ED
:1049C000F4EEE06AF1EE10FA3EDCF8EE677A77EE8C
:1049D000C17AF8EEE56AB8EEC56A67EEA66A684B7A
:1049E0006849C6EE867AC3ED007A674B187898B9A5
:1049F00037EE876A77EEC76A6448C1ED006A76EEE3
:104A0000866A80ED006AB6EE006A614866EE866AE4
:104A1000C0ED006A01201870D1ED006AF4EEE67A6C
:104A2000F1EE10FA13DB594991ED006AF4EEC67A03
:104A3000F1EE10FA0BD8564BD3ED007AB0EE670AC0
:104A40007047F0EE407AC2E7F0EE607ABFE7F4EE2E
:104A5000E67AF1EE10FA08D44C49D1ED006AF4EE92
:104A6000E67AF1EE10FA40F3E98000221A70E5E7E9
:104A7000F0EE407AAAE0F0EE607AA7E0F4EEE67A93
:104A8000F1EE10FAF1D43C49D1ED006AF4EEE67A89
:104A9000F1EE10FAE9DCD389022BCFD1538A2CE74F
:104AA0000129CBD1304BDB681A88012AC6D19B88FB
:104AB00007EE903AF8EEE76AF4EEC06AF1EE10FA0B
:104AC00008D4F4EEE06AF1EE10FAD4BFB8EE670A4B
:104AD000B0EE600A30EE411AF8EEE55AB8EEC55A6B
:104AE00021EE251A264B274AC1EE057AC3ED007A3E
:104AF000254B197899B977EEC76A37EE877A23493B
:104B0000C2ED006A76EE876A81ED007AB6EE007A31
:104B10001F4966EE876AC1ED006A0121197092EDA6
:104B2000007AF4EEC77AF1EE10FA08DB174AD2EDFC
:104B3000006AF4EEE67AF1EE10FA7FF67CAFF4EE5E
:104B4000C77AF1EE10FA90D4104A92ED007AF4EEA2
:104B5000C77AF1EE10FA7FF771AF86E710000020F8
:104B6000000048420000C8425C03002030030020DF
:104B700040030020500300203803002010030020D1
:104B80002C0300203C0300204F03002034030020AE
:104B90000C03002002297FF451AF2B4BDA681388F5
:104BA000022B7FF478AF938807EE903AF8EEE76A2D
:104BB000F4EEC06AF1EE10FA3FF55AAFF4EEE06A97
:104BC000F1EE10FA3FF757AFF8EE677A77EEC17A59
:104BD000F8EEE56AB8EEC56A67EEA66A1B4B1C499B
:104BE000C6EE867AC3ED007A1A4B187898B937EE7C
:104BF000876A77EEC76A1848C1ED006A76EE866A62
:104C000080ED006AB6EE006A144866EE866AC0ED72
:104C1000006A01201870D1ED006AF4EEE67AF1EE38
:104C200010FAFFF62BAF0C4991ED006AF4EEC67A4C
:104C3000F1EE10FA3FF622AF084BFDE6D389012BC7
:104C40007FF4FCAE538A33E75C030020300300207E
:104C500040030020500300203803002010030020F0
:104C600010B52DED028B012884B0F0EE408AB0EE35
:104C7000608A40F09B80012960D1A34901A809F016
:104C800045FDA24901A809F095FD01469E4809F09D
:104C90002EFD01A809F0C1FC9B4901A809F036FDD1
:104CA000FDEEE87A01A817EE901A09F090FD014692
:104CB000954809F01CFD01A809F0AFFC924901A834
:104CC00009F024FD924901A809F074FD01468E48BF
:104CD00009F00DFD01A809F0A0FC8B4901A809F01D
:104CE00015FD8C4901A809F065FD0146864809F0CB
:104CF000FEFC01A809F091FC834901A809F006FD1A
:104D0000FDEEC87A01A817EE901A09F060FD014681
:104D10007D4809F0ECFC01A809F07FFC7A4901A864
:104D200009F0F4FC7C4901A809F044FD01467648ED
:104D300009F0DDFC01A809F070FCA9E00229EDD121
:104D4000714901A809F0E2FC744901A809F032FD9B
:104D500001466D4809F0CBFC01A809F05EFC6A49E8
:104D600001A809F0D3FCFDEEE87A01A817EE901A2D
:104D700009F02DFD0146644809F0B9FC01A809F0CD
:104D80004CFC614901A809F0C1FC614901A809F086
:104D900011FD01465C4809F0AAFC01A809F03DFCA0
:104DA000594901A809F0B2FC5D499BE702286FD17F
:104DB0005C4C23680133022B08BF002301292360C8
:104DC0006AD1514901A809F0A1FC504901A809F094
:104DD000F1FC01464C4809F08AFC01A809F01DFCD1
:104DE000494901A809F092FCFDEEE87A01A817EE06
:104DF000901A09F0ECFC0146434809F078FC01A840
:104E000009F00BFC404901A809F080FC404901A8C9
:104E100009F0D0FC01463C4809F069FC01A809F002
:104E2000FCFB394901A809F071FC3A4901A809F0D5
:104E3000C1FC0146344809F05AFC01A809F0EDFB19
:104E4000314901A809F062FCFDEEC87A01A817EE0D
:104E5000901A09F0BCFC01462B4809F048FC01A857
:104E600009F0DBFB2368012B0ED1274901A809F0CB
:104E70004DFC274901A809F09DFC0146224809F094
:104E800036FC01A809F0C9FB2368002B3FF446AFAC
:104E900004B0BDEC028B10BD0229E3D11A4901A870
:104EA00009F034FC1D4901A809F084FC01461648AC
:104EB00009F01DFC01A809F0B0FB134901A809F095
:104EC00025FCFDEEE87A01A817EE901A09F07FFCA8
:104ED00001460D4809F00BFC01A809F09EFB0A49A8
:104EE00001A809F013FC0A4901A809F063FC014676
:104EF000054809F0FCFB01A809F08FFB024901A855
:104F000009F004FC064991E7E40200208B2101002E
:104F100089210100A6210100F7210100C121010022
:104F2000DC2101005803002010B50C4C4FF48270B6
:104F30002461C4E90B440AF0ABFF0023A0630430F2
:104F4000E063C4E90033064C0648214609F0B0FB93
:104F500021460548BDE8104009F0AABB5C030020CB
:104F6000A0220100E4020020D002002008B506487B
:104F700009F053FB054809F050FB054B986BBDE861
:104F800008400AF08DBF00BFD0020020E4020020DC
:104F90005C030020F8B5836B0F4FAE221A70836B51
:104FA000C1225A70836B90F840209A70836B90F8FE
:104FB0004120DA7090F84140866B0434E4B2354603
:104FC000AB1BDBB29C4205D915F8011B384600F03B
:104FD0008DFCF5E72046F8BDA00300202DE9F04147
:104FE0000E4615460AB100231380441EDFF82480C4
:104FF000A719BC420BD00021404600F077FC04F812
:10500000010F002DF5D02B8818442880F1E7304699
:10501000BDE8F081A0030020F7B5002504462F4627
:105020002E46002201210DF10600FFF7D7FF0028D0
:1050300037DB9DF806304CF2AF1245EA0325954266
:1050400026D1012384F842302A4B00221A7094F8AA
:105050004250A06B002D38D000220421FFF7BEFF84
:10506000002827DBA06B037884F84030417884F86F
:1050700041100DF106024488FFF7B0FF002819DB4C
:10508000BDF80630A3420CBF00206FF0020011E013
:105090004CF2AE12954203D1002384F84230D6E799
:1050A0001D46032E0ED9032F06D9124B01221A706A
:1050B0004FF0FF3003B0F0BD192009F071FC01374B
:1050C000FFB200260136F6B2ABE72A460221FFF70F
:1050D00085FF0028EEDBA06B037884F84030417830
:1050E00084F841102A46FFF779FF00EAE07000B229
:1050F000E0E700BFE1020020012310B580F8413055
:10510000C36B00221A700C23044680F84030FFF76E
:1051100041FF2046FFF780FF48B994F840300D2B3F
:1051200005D1A36B1A88A2805B88E38010BD4FF085
:10513000FF30FBE7FFFFFFFF2DE9F043C44C0123E5
:10514000C5B06374204609F049FD0028FAD0C14D6E
:105150002C68012C39D14FF47A7009F025FCBE4B34
:10516000BE491A6804A80BF041FC04A9B84809F02C
:105170001DFA642009F018FCB949B54809F0FDF999
:10518000642009F011FCB749B14809F0F6F9642030
:1051900009F00AFCB349AE4809F0EFF9642009F0C0
:1051A00003FCB149AA4809F0E8F94FF47A7009F014
:1051B000FBFB06230093AD490223224604A80BF013
:1051C00015FC04A9A24809F0F1F90021022009F018
:1051D00045FB0121032009F041FB0021092009F0D2
:1051E0003DFB0021082009F039FB0021072009F0D0
:1051F00035FB0021062009F031FB0021052009F0D4
:105200002DFB0021122009F029FB0021112009F0BB
:1052100025FB0021102009F021FB00210F2009F0BF
:105220001DFB00210E2009F019FB0021042009F0CC
:1052300015FB0021132009F011FB8D488D4C00F067
:105240001FFE8D4A029203228DF80C20012202AB30
:105250008DF80D2093E80600854800F0BDFE09F0AA
:10526000E7FB41F2873706464FF00E0809F0E0FBF6
:10527000801BB84215D8A4F840802046FFF78AFE6C
:105280002046FFF7C9FE38BB94F840300F2B23D1DE
:10529000A36B236094F94130002B1DDB7548FFF7A9
:1052A0002BFF296801291CD1744B754A1B78137098
:1052B000BBB1032009F0EAFA724B73491A6804A8DB
:1052C0000BF094FB04A9624809F070F94FF47A706E
:1052D00009F06AFBFEF714FF41F2883009F060FB29
:1052E000C4E7132008F0FAFE0AF07AF856A3D3E9CF
:1052F00000230AF009FA0022644B654F0AF0DAF83D
:105300000022644B804689460AF050FB002800F0DA
:10531000938001233B70494640460AF07BFB002105
:105320000091FF23642208F0F7FFDFF88091514ECF
:10533000804621224946E06B0BF08AFB42F20213C1
:10534000A4F840303046FFF725FE3046FFF764FEF4
:1053500030B9A36B1B68002B70DD4648FFF7CCFE0D
:10536000E36B444883F800804FF48873A4F840301E
:10537000FFF710FE3F48FFF74FFE3E48FFF7BCFE29
:10538000E36B3C4800261E70E36B5E70E36B9E701F
:105390004FF44573A4F84030FFF7FCFD3548FFF7A4
:1053A0003BFEE36B3A781A70E36B32485E7040F272
:1053B0001623A4F84030FFF7EDFD2E48FFF72CFE32
:1053C00041F2883009F0F0FA2B68012B1CD13249E8
:1053D0001F4809F0D2F8642009F0E6FA21491C4878
:1053E00009F0CBF8642009F0DFFA1E49184809F0EB
:1053F000C4F8642009F0D8FA2849154809F0BDF826
:105400004FF47A7009F0D0FA2B68012B11D1244B9C
:105410001B78002B4CD0234B23491A6804A80BF0AF
:10542000E5FA04A90A4809F0C1F84FF47A7009F0C6
:10543000BBFA45B0BDE8F08338706CE74FF47A7082
:1054400009F0AEFA75E700BF0000000000F88F40D9
:10545000741100200000002020000020FA2101002B
:10546000282201006A230100372201003A220100AC
:10547000A00300205C03002080841E00E1020020C5
:10548000E2020020180000204121010000005940E4
:10549000E002002000003940922201009D2201001C
:1054A000CC02002014000020A1220100772201007C
:1054B0000249034809F061F8BBE700BF99260100E3
:1054C0007411002070B53B4B1D783B4B90B01D70A4
:1054D000BDB10121032009F0D9F9384B1B68012B1C
:1054E00009D1374B37491A6868460BF07FFA69468D
:1054F000354809F05BF84FF47A7009F055FAFEF779
:10550000FFFD022009F0CEF908BB0121032009F0BC
:10551000BDF92A4B1B68012BEDD12C492A4809F013
:105520002CF8642009F040FA2949274809F025F8A9
:10553000642009F039FA2649234809F01EF864204E
:1055400009F032FA2349204809F017F8D3E7224C32
:105550004FF40876E5602572FF252369DB6B1D702B
:105560002369DB6B5D702069A0F84060FFF712FDD6
:105570002069FFF751FD60B9236993F84020212A83
:105580000AD19A6BE26093F841300E22B3FBF2F33A
:105590002372207A10B070BD032A05D19B6B1B7853
:1055A00003F0FB03FA2BF4D14FF4FA7009F0F8F989
:1055B000D3E700BFE1020020E2020020000000204B
:1055C0001C0000204021010074110020582101001E
:1055D0006A230100742101005C0300202DE9F84FCB
:1055E000FEF79EFE0028FBD0FEF79AFE6D4C6E4D36
:1055F000206009F01DFA2B68C01A23689842C0F099
:10560000CF80FEF713FF2860FFF75CFF674B002891
:1056100014BF012200221A70654A664B127A1A6082
:105620009B4600F0BD802068FEF70AFFDBF80060B3
:10563000012E3AD100213046FEF764FF5E4B5F4DEC
:1056400018605F4BDFF890A193ED000A5D4BDFF827
:105650008091D3ED000A5C4BDFF8788193ED001A5E
:105660005A4F012804464FF048034FF014027CD1F2
:105670000146FEF759FFD9ED000A85ED000A2146E3
:10568000482314229AED001A98ED000ADBF8000076
:10569000FFF718F9F0EE400A87ED000A95ED000AD1
:1056A0002146DBF80000FFF7DBFADBF80040022CB4
:1056B00076D1DFF810A1DFF808914349DAED000A4E
:1056C00091ED001A99ED000A3C4DDFF80C81404F36
:1056D0003E4E2046482314220121FEF725FF3D4877
:1056E00098ED001A85ED000A48231422D7ED000A30
:1056F00090ED000ADBF800000121FFF7E3F8DBF88A
:10570000000086ED000AF0EE400A012195ED000A46
:10571000FFF7A6FA2C49DAED000A91ED001ADBF842
:10572000000099ED000A214648231422FEF7FCFEF2
:10573000284885ED000AD7ED000A98ED001A90ED93
:10574000000ADBF80000214648231422FFF7BAF8CC
:10575000214686ED000AF0EE400ADBF8000095EDE8
:10576000000ABDE8F84FFFF77BBA02213046FEF78A
:10577000DBFED9ED000A85ED000A02214823142240
:105780009AED001A98ED000ADBF80000FFF79AF88E
:105790000221F0EE400A87ED000A95ED000A80E74D
:1057A000BDE8F88FDC020020F00200204C0300204E
:1057B0005C030020F4020020F802002044030020D3
:1057C000BC020020B8020020FC0200204803002098
:1057D000C4020020C80200200003002007B54FF4D7
:1057E000E131194809F039F900230222CF2140F2B2
:1057F0003B10CDE9003240F20D22B423FEF794FCB9
:10580000FFF79AFCFEF708FD104B83ED000AFEF748
:1058100017FD0F4B83ED000AFEF726FD0D4B83EDC0
:10582000000AFEF735FD0C4B83ED000AFEF744FD40
:105830000A4B83ED000AFEF759FD094B83ED000A80
:1058400003B05DF804FB00BF74110020BC0200200F
:10585000B8020020C8020020C4020020FC02002080
:10586000000300207047704770477047704790F8FA
:105870002C20436B10B504462AB16C3098470023A6
:1058800084F82D3010BD3C30F8E7F8B5427C036851
:1058900004460E46CFB29B680D0A62B93946984756
:1058A000236860F307069B6829462046984760F303
:1058B0000F26B0B2F8BD29469847236860F30F263B
:1058C0009B6839462046984760F30706F1E7FFFFDB
:1058D00001790368034A0333012918BF0221D15417
:1058E000704700BF240000207047FFFF70B590F89C
:1058F0002C3086B004468DF80F103BB3836A1A4DE6
:105900000222EA5407230093866B01230DF117024C
:105910000DF10F016C30B04709F08AF80646A36A12
:10592000EB5C012B07D009F083F8801BB0F57A7F80
:1059300001D200BFF3E7A36AEB5C022B10D123680E
:1059400020461B6B9847002006B070BD436C9DF845
:105950000F201A71DA78D209FCD01B798DF8173034
:105960009DF81700F0E700BF24000020F7B51346AC
:1059700004460846002900F0898094F82C2022B3C0
:10598000A26A434D0226AE5407220092A66B0A4635
:1059900004F16C00B04709F04BF80646A36AEB5CD3
:1059A000012B07D009F044F8801BB0F57A7F01D2B3
:1059B00000BFF3E7A36AEB5C022B67D123681B6B84
:1059C000204603B0BDE8F040184703F0030C9B08E5
:1059D0005AD0616C0D7862F3861520220D70CA7260
:1059E0000A8A022565F30B220A820A7842F04002F5
:1059F0000A70CA789506FCD502684A60012B18D057
:105A0000CA789206FAD542684A6002276FF0030E00
:105A10000EFB070E3E46F51B9E420CD2CA78D209F9
:105A2000FAD050F826204D684A604EF826500136CC
:105A3000F1E71F46EAE79D4207D2CA78D209FAD0B9
:105A40004A6840F825200135F5E70B786FF3861397
:105A50000B704023CB720B8A072262F30B230B825D
:105A60000B7843F040030B70AD00431960442844A9
:105A700083420BD0626C19781171D178C909FCD0BE
:105A8000127903F8012BF3E71D46EDE703B0F0BDF3
:105A90002400002010B5CC21044609F04BFB204621
:105AA00010BDFFFF70B5124D0560C361114D9DF82B
:105AB000103045600126002580F82030DF23057274
:105AC0004672C56005744674C0E90512C0E90955FF
:105AD00080F82C5080F82D50C0E90C55856380F873
:105AE000993080F89A3080F89B3080F89C3070BDF7
:105AF000BC23010040420F002DE9F04F8FB01E463D
:105B0000B2F100089DF86430DDF860B001930446FE
:105B10000ADB002E08DBBBF1000F05DB884503DA4A
:105B20008E4201DA8B4504DB00232370636023720D
:105B3000ADE00DF1200A04225FFA88F150460AAF69
:105B400009F060FA0CAD0522F1B2384609F05AFAB4
:105B500006225FFA8BF1284609F054FA0022CDE9BB
:105B60000222CDE9047500929146CDF81CA0079B56
:105B7000009933F811304FEAA31A03F001000AF03C
:105B80001F0506904FF0000C4FF0030E23B304984E
:105B9000009930F81100F8B1059830F81100D8B12B
:105BA000049830F81C708AEA9710C00614D1059842
:105BB0006FF0010101FB0E00C0888AEA9011C9064E
:105BC0000AD1069A12B3019A022A19D0019ABAB1DF
:105BD000CDE902702A469946BEF1010ED6D10CF1EC
:105BE000010CBCF1030FCFD1009B0133032B0093B9
:105BF000BDD11546B9F1000F04D0DDE902704B4666
:105C000007B130B900232370656090E7019A012A3B
:105C1000DBE713F0010933D0092DF3DC17F4F04F63
:105C2000274F0CBF4FF080624FF0A06213F4F04F8B
:105C30000CBF4FF0806A4FF0A06A42F4803210F43B
:105C4000F04F37F838101F480CBF4FF080694FF005
:105C5000A06902F071FA4AF4803237F83610194818
:105C600002F06AFA49F4803237F83B10154802F026
:105C700063FA4FF0010984F800906560012356E74C
:105C8000022D08DD84F80090656084F808902046B5
:105C90000FB0BDE8F08F0A4F0B4A37F838100948AB
:105CA00002F04AFA37F83610074A064802F044FA7A
:105CB000054A37F83B10034802F03EFADBE700BF25
:105CC000C424010034120020000001060B79013BBE
:105CD000DBB2022B98BF094A10B59EBFD45C084ABC
:105CE000D25C4B7988BF0022B3FA83F388BF144695
:105CF0005B0903704270847010BD00BFAE230100C9
:105D0000B123010073B500F198030364D0F8B030FB
:105D10000366D0F8B430836690F8983003F58003BA
:105D200003F5E46304460E4600251B024566436402
:105D300001A8FFF7CBFFB4F8C3303068ADF80030EE
:105D4000694600F0D1FC636C1D70EFF310820123F3
:105D500083F310882C4994F898604868C6F11306BC
:105D6000B34020EA03034B604B6882F3108894F839
:105D7000BF1094F8BE20636C8A40D2B25A702022C1
:105D80009A709DF800209A72DA7A9DF8041042F019
:105D90004002DA7293F82020C84360F3000283F8CF
:105DA000202010221D735D739D73DA7394F8A12077
:105DB0001AB91A7842F008021A701D821A8A9DF8E0
:105DC000060060F300021A821A8A9DF8050060F34B
:105DD00041021A821A8A9DF8010060F383021A8236
:105DE0001A8A072060F30B221A821A8A61F30C3296
:105DF0001A82DA78DD701A7842F040021A70034B8A
:105E0000E36302B070BD00BFFC6F044049505352C1
:105E100037B5044668460D46FFF758FFD4F8C8303A
:105E2000ADF8043001A91B0C002228688DF806305B
:105E300001F084FE626F9DF801309DF80240507BB6
:105E400091799B0143EAC41303439DF8000041EAA2
:105E5000C0019DF8050000F0030040F080001070C4
:105E60009DF804005070DBB25373CBB2937103B052
:105E700030BD90F82C300BB1FFF7CABFFFF742BF1F
:105E80002DE9F043044689B000F011F994F8203070
:105E90000193E36900930146D4E9052302A8FFF7C3
:105EA0002BFE9DF80820039B9DF81060636284F828
:105EB0002C20002A74D0414A2263414A6263414A3D
:105EC000A263DA1CA26204F1C802C4F8B8203E4AF8
:105ED00084F898300C2384F89D3084F89E3084F840
:105EE0009F3084F8A030012384F8A43084F8BC30BB
:105EF00084F8C33094F8C430C4F8B020002565F3AA
:105F0000010384F8C43094F8C93084F8A15065F3D3
:105F1000010384F8C9300B2384F8C83084F8A250F8
:105F200084F8A35084F8A550C4E92A55C4F8B450A5
:105F300084F8BD5084F8BE5084F8BF5084F8C05037
:105F400084F8C15084F8C25084F8C55084F8C65013
:105F500084F8C75084F8CA50211D2046FFF789FFF6
:105F600094F82C30BBB1636A8DF81C3004F16C07D7
:105F700004F198080597CDF8188006F08BFE0A21E9
:105F800005AA07F083F8236B8146414638469847B7
:105F900090B906EA090684F82D6009B0BDE8F083DF
:105FA0000A4921630A4961630A49A16304F1BC01FA
:105FB000A362C4F8B8108BE72E46ECE771770000B7
:105FC00055760000397B0000D1580000396400008C
:105FD000C96100002964000037B590F82D306D4686
:105FE000044685E8060013B90368DB6A9847E2684F
:105FF000009B9A4204D1228ABDF804309A4207D00D
:1060000020462946FFF735FF0098AB88E0602382E1
:1060100003B030BD07B5012300930B220D230C21E3
:106020000248FFF73FFD03B05DF804FBA00300202A
:1060300070B500250446294600F8045B102209F0DB
:106040006DFF104B656103F1200604F11805186817
:1060500059682A4603C20833B3421546F7D10A4BA2
:1060600004F1380203F1080618685968154603C59B
:106070000833B3422A46F7D118689B882860AB8062
:10608000204670BDF023010010240100037813B1F5
:10609000043000F091B870470148FFF7C9BF00BF56
:1060A0006C04002008B508F067FC002008BD1B2028
:1060B0007047FFFF034AB2F8CC3043F08003A2F8E8
:1060C000CC3070470000094037B501210D2008F0A1
:1060D000C5FB00210D2008F0D9FB684607220321EB
:1060E00008F090FFBDF800301C4CC3F38413012569
:1060F000684607220521E55408F084FFBDF800300A
:10610000C3F38413684607220621E55408F07AFF9A
:10611000BDF80030C3F38413684607220921E55413
:1061200008F070FFBDF80030C3F3841368460722FF
:106130000A21E55408F066FFBDF80030C3F384136C
:1061400007220B216846E55408F05CFFBDF80030DB
:10615000C3F38413E55403B030BD00BF020A00202E
:106160000B7930B4DB01114C114DDBB2A3714B78CC
:106170008A781B01120302F44052DBB213430A78FF
:106180008446A85CCA78120202F4407200F0030050
:106190001343034363804B79064ADB01DBB223726E
:1061A000002030BCCCF80020704700BF0042044003
:1061B0009C25010054445700024B0020FF22187018
:1061C0001A707047004204404368002210B5026014
:1061D0005A69044622B1936810681B6A984763683D
:1061E0001A6922B1936810681B6A9847636893F92B
:1061F0000220002A0EDB530924480121203302F03B
:106200001F0201FA02F240F82320BFF34F8FBFF3C1
:106210006F8F636893F90120002A0EDB53091B4836
:106220000121203302F01F0201FA02F240F823207C
:10623000BFF34F8FBFF36F8F636893F90330134839
:1062400059090122203103F01F0302FA03F340F839
:106250002130BFF34F8FBFF36F8F636893F9043022
:10626000590903F01F039A4001F1200340F823204D
:10627000BFF34F8FBFF36F8FA268137823F04003F3
:1062800013700020D378D07010BD00BF00E100E093
:1062900030B5836A85B004468C4601ADABB193E856
:1062A000070085E807006268117883F804C0E26A95
:1062B0009A6019601846626A9047A36A1BB195E814
:1062C000070083E8070005B030BD2B46EBE700BFB1
:1062D000F8B587689DF818C00446387810F040007B
:1062E00040F084801E46E361636884F820C0C4E9FE
:1062F00005005869C4E903120D4640B34368A6611E
:10630000BCF10F0F19686BD8BCF1070F94BF4FF0A9
:10631000000C4FF0010C4B884FEA0C3C23F4405327
:1063200023F00C034CF0080C4CEA030CB3B2CB8105
:10633000A1F802C08A60002A62D0836800685B68A6
:10634000984700284BD1636894F820C0A7681A6961
:1063500042B353686661BCF10F0F196843D8BCF1B2
:10636000070F94BF4FF0000C4FF0010CB3B2CB817C
:10637000CB784D604FEA0C1C4CF0080C23F03C032A
:106380004CEA030C81F803C0002D40D03B78106824
:1063900023F020033B7093685B689847F8B994F842
:1063A00020C0A768FA7A3B8ABCF10F0FD2B29BB229
:1063B0001ED90CF1010C22F040024FEA9C0CACF10A
:1063C000050C42F0200223F4706343EA0C239BB2D5
:1063D000FA723B823B7843F0600300203B70F8BDCB
:1063E0004FF0020C97E74FF0020CBFE70820F8BD12
:1063F000BCF1070F94BF42F0400202F09F02E2E7B7
:106400008B7862F383038B70054B8B6095E75FFAA3
:106410008CF365F38303CB70024B4B60B6E700BF90
:10642000B8040020B404002010B49DF80440019486
:106430005DF8044BFFF74CBF2DE9F04F0B78DFF808
:10644000A4820F691B0283B00D460446984477B1BD
:10645000D7E901131A680B684FF000601860C3F8A1
:106460000880386890470646002840F0F6806B693F
:1064700073B1D3E9011218680B681268C3F804807D
:106480004FF400261E6090470646002840F0E98041
:10649000D5E906130022C4E90A23656061622B78FE
:1064A00003F5800303F5E4631B02A3606F7A002FFA
:1064B00000F0E1801146B02096466B7BEE7A2A6AA6
:1064C000AD7A1B0343EA46031D4313780BB141F039
:1064D000B10092F801C0D3784FEA4C1120EACC16F3
:1064E00041EA4C01907831431679984025F07005C7
:1064F0001B011EB1022E0CBF3026202692F805C0CB
:10650000BCF1000F06D0BCF1010F14BF4EF0010E1C
:106510004EF0030E92F808C00CF0030C43EA8C0313
:106520002B4395790095002F40F0AA80957A92F838
:10653000099092F80B80019543F46043EFF3108AC1
:10654000012585F31088676897F800C0604FCCF18B
:10655000130CD7F800B105FA0CFC2BEA0C0BC7F8AA
:1065600000B1D7F800718AF31088A768C9B297F80C
:1065700003C0C0B24FF0000C87F803C039707870C8
:10658000BE70D279BA729BB2019A87F80C905FFA0A
:106590008EFE7A73616887F80E8087F80FE03B8281
:1065A000009B87F8203091F9023063456EDA494844
:1065B00091F90130002B21DB4A79474E03F1604508
:1065C00005F56145120103F1C007D2B285F8002339
:1065D00040F8234056F827505A09920025F4803598
:1065E00002F1604246F8275002F5614203F01F03B2
:1065F000012505FA03F3C2F88031136091F90420F4
:106600000B7A364D344FAE181B0102F1C00CDBB2D1
:1066100086F8003340F8224057F82C6053099B005D
:1066200026F4803603F1604347F82C6003F561439C
:10663000012602F01F0206FA02F2C3F880211A6056
:1066400091F90320CB7915441B01DBB285F80033A7
:10665000234B40F8224000262360304603B0BDE8BB
:10666000F08F002FF9D0BB6838681B6A9847304616
:1066700003B0BDE8F08FB82008214FF0100E1CE7E2
:106680004FF00008CDF80480C14657E78A79124ED2
:1066900003F1604000F561401201D2B280F800239E
:1066A0000C4803F1C0075A0940F82340920003F058
:1066B0001F039D4002F1604256F8273002F5614207
:1066C0006CF3104346F82730C2F8805115606FE72D
:1066D000006F04400C0500200060004000E100E075
:1066E00049505352042007401E4A1F4B126A1B6830
:1066F000C2F3026C03FA0CF3C2F30232D340421E1F
:106700001344B3FBF0F0B0F5805F1DD801281DD90C
:10671000B0F5007F1ED9B0F5806F1FD9B0F5006FBE
:106720008BBF102208224FF0030C4FF0020C431EC7
:106730001344B3FBF2F3013BDBB24A780B706CF30A
:1067400001024A7000207047062070474FF0000C8D
:106750006346F2E702224FF0000CE8E704224FF014
:10676000010CE4E700E001409805002010B4EFF3CD
:106770000383103B5BB22149214C03F1C00051F867
:10678000202022F4803241F8202054F82330D3E92D
:1067900006218A421CD018699C6840B393F820C037
:1067A000BCF10F0F0AD9616840F82210D969013293
:1067B0008A429A610CD05DF8044B7047BCF1070F18
:1067C00017D821798154D96901328A429A61F2D16C
:1067D0005B680C4993F903305DF8044B58090122BA
:1067E00003F01F0302FA03F341F82030704760689A
:1067F000DDE7A48820F81240D9E700BF0060004020
:106800000C05002000E100E030B5EFF30383103BFE
:106810005BB203F1C0002C492C4C51F8202022F42B
:10682000803241F8202054F823305868026A82B33D
:1068300092F801C0DC695A69BCF1010F16D0A2427E
:106840000BD0D3E9020129B193F820400F2C05D9D0
:1068500051F82210416001325A6130BD072C95BFBA
:10686000895C31F8121001718180F4E704F1FF3E78
:10687000964511D001690029E1D090F90310144820
:106880004FEA511E01F01F010CFA01F140F82E10E1
:10689000D5E75A69DC69D2E790F9034004F1C00EEC
:1068A0006009800051F82E5000F1604000F5614011
:1068B00004F01F040CFA04F425F4803541F82E503E
:1068C000C0F880410460BCE7006000400C05002077
:1068D00000E100E0EFF30383103B5AB2324802F1CB
:1068E000C00C03F0FF0350F82C1021F4803140F865
:1068F0002C102E4951F822008168C978890704D5E7
:106900004168497A012900D07047520910B4012129
:10691000274C203203F01F0301FA03F344F822301E
:10692000BFF34F8FBFF36F8F436893F90230002B93
:106930002FDB5A09203203F01F0301FA03F344F856
:106940002230BFF34F8FBFF36F8FD0E9012423783C
:1069500092F9022023F04003002A237014DB02F195
:10696000C00C114C53099B0002F01F02914003F12F
:10697000604354F82C2003F5614322F4803244F83C
:106980002C20C3F8801119605DF8044B0121FFF73A
:106990007FBC82685DF8044B137823F040031370CA
:1069A0000121FFF775BC00BF006000400C0500200E
:1069B00000E100E070B5EFF30384103C314B64B2AA
:1069C00053F82460736893F90230002B41DB5A09B5
:1069D0002D492032012003F01F0300FA03F341F890
:1069E0002230BFF34F8FBFF36F8FD6E9012392F9A7
:1069F00002101A78002922F040021A7014DB01F10B
:106A0000C00C224D4A09920001F01F01884002F19A
:106A1000604255F82C1002F5614221F4803145F8AE
:106A20002C10C2F880011060DA780021D5B212076C
:106A3000D97021D4EB0712D405F01405142D16D00B
:106A4000124AC03452F8243023F4803342F8243000
:106A500070BDB3681A7822F040021A70E4E704218E
:106A6000304605F01405FFF713FC142DE8D108217A
:106A70003046FFF70DFCE3E705213046FFF708FC41
:106A8000D8E700BF0C05002000E100E000600040F6
:106A9000036A70B50446987800F07B0098702078FF
:106AA0000D4658BBE16994F802C00E690CF0030171
:106AB000521A2944C4E903124EB37AB1A37830685C
:106AC00003F00303013B22FA03F3B2689668002245
:106AD0009BB22261B04780B9236A20789A7842F04D
:106AE00080029A7040B994F802C00CF0030CBCF11B
:106AF000020F15D02A78DA70002070BDC4E90312A5
:106B0000E1690E6996B12946002AE7D0D6E79A785E
:106B10000CF0030C42F08002BCF1020F9A70E9D134
:106B20002A8842F47E42DA810020E6E79A7842F031
:106B300080029A700020E0E7036A91F801C000B576
:106B40000246987800F07B0E00F00B009870002051
:106B5000D0608A785A701A786CF301021A70CA7879
:106B60009A7493F807C00A780CF0A30102F05C0253
:106B70000A43DA7183F802E05DF804FB10B5D0E94E
:106B80000721002343608B7092F905202F490446AA
:106B900050090123203002F01F0203FA02F241F8EB
:106BA0002020BFF34F8FBFF36F8FE26992F90B2064
:106BB0005009203002F01F0203FA02F241F82020AF
:106BC000BFF34F8FBFF36F8FE26992F9072050092F
:106BD000203002F01F0203FA02F241F82020BFF336
:106BE0004F8FBFF36F8FE26992F90920500902F0CD
:106BF0001F02934000F1200241F82230BFF34F8F73
:106C0000BFF36F8FE369DA6822B1936810681B6A7B
:106C10009847E3691B691BB19A681868136A98471B
:106C2000EFF31081012383F31088E369084A1C788D
:106C3000D2F800014FF00043E3400343C2F80031B3
:106C4000D2F8003181F31088002010BD00E100E08F
:106C5000006F0440F0B5846A85B005460F4694463F
:106C60006E46B4B194E80F0086E80F00EB691B781C
:106C700084F804C02360EB6A2046C4E902736B6A9F
:106C80009847AC6A1CB196E80F0084E80F0005B085
:106C9000F0BD3446EAE700BF2DE9F0470B78032248
:106CA000DA4002F001020D461201027003F1007396
:106CB000AA694969416203F5605300265B01C0E996
:106CC0000753C0E90A626A788378B24214BF01228E
:106CD000022262F301038370044695F90B00D04B46
:106CE00095F80AC04209203200F01F07012101FA7D
:106CF00007F743F82270BFF34F8FBFF36F8FC94A76
:106D0000C94F00F1C00E4FEA0C1C52F82E8066F3FA
:106D1000104842F82E8003EB000E5FFA8CFC8EF8D0
:106D200000C347F8204095F9050095F804C04FEAE4
:106D3000501E0EF1200E00F01F0801FA08F843F86B
:106D40002E80BFF34F8FBFF36F8F00F1C00E03EBA8
:106D5000000952F82E804FEA0C1C66F310485FFAC7
:106D60008CFC42F82E8089F800C347F8204095F942
:106D7000070095F806C04FEA501E0EF1200E00F0F5
:106D80001F0801FA08F843F82E80BFF34F8FBFF3B6
:106D90006F8F00F1C00E03EB000952F82E804FEA0E
:106DA0000C1C66F310485FFA8CFC42F82E8089F8C0
:106DB00000C347F8204095F9090095F808C04FEA4C
:106DC000501E0EF1200E00F01F0801FA08F143F8E2
:106DD0002E10BFF34F8FBFF36F8F4FEA0C1100F1EE
:106DE000C00C034452F82CE066F3104E42F82CE03D
:106DF000C9B283F80013EB6847F8204003B3596821
:106E0000E7690A684FF40020106094F800C0206A17
:106E1000461DBCF1000F00F05881113050607878A9
:106E200030B9D0780B365660012666F30510D07065
:106E30009A681868136898470646002840F042810F
:106E40002B6903B35968E7690A684FF00060106066
:106E500094F800C0206AC61CBCF1000F00F0458108
:106E60000F309060787830B9D0780B369660012674
:106E700066F30510D0709A6818681368984706463C
:106E8000002840F03981EFF31080012383F310884C
:106E9000664B2E78D3F800214FF00041F14022EAF2
:106EA0000102C3F80021D3F8003180F31088236A6F
:106EB000E06900229A701A715A729A72DA725A83D1
:106EC000297840F20722CA40D20744BF4022DA7430
:106ED00006221A7722787AB1C168013A002900F0B7
:106EE00015810126120391B2314341F006029A82C4
:106EF0009A8A92B29142FBD1EA78A978D20042EA0A
:106F000001126978032900F0E28000290CBFE22118
:106F1000F221ED69D2B21A7099712A7B520002F007
:106F200002025A736A78A97800261E7295F800C08A
:106F3000D201490101F02001D2B20A43ACF10201B1
:106F4000012940F2C880D2B2DA716A68917859702A
:106F50001978567866F301011970D178997412780E
:106F6000D97902F05C0201F0A3010A43DA7100272B
:106F7000C4E90377C4E9057790F90510294E01F1BA
:106F8000C00E4A0956F82E80920067F3104802F1AD
:106F9000604246F82E8002F561424FF0010E01F08A
:106FA0001F010EFA01F1C2F88011116090F90B1067
:106FB00001F1C0094A0956F829A0920002F1604285
:106FC00002F5614267F3104A01F01F0146F829A05B
:106FD0000EFA01F1C2F88011116090F9071001F169
:106FE000C0094A0956F829A0920002F1604202F550
:106FF000614201F01F0167F3104A46F829A00EFA1A
:1070000001F1C2F88011116090F9091001F1C0007E
:107010004A0956F82090920002F1604208E000BF51
:1070200000E100E0006000400C050020006F04401B
:1070300067F3104946F8209002F561420CF0030C0A
:1070400001F01F010EFA01F14CF0700CC2F8801132
:10705000116083F802C06B8923814FF6FF784345A6
:107060002DD0EFF310818EF310882D4A13681BB9D1
:107070002C48C3704023C37013680133136081F33D
:107080001088218928480B0A1B0153FA81F150F816
:10709000213023F0011323F4404343F0040340F86C
:1070A0002130EFF31081012383F31088136813B1AB
:1070B0001368013B13601368CBB181F310881B4B3D
:1070C000636000263046BDE8F0873046A6E642F011
:1070D0004002F2211DE7BCF1020F08BF42F010028E
:1070E000FF21D2B25970DA7141E73046B9E60D4A54
:1070F0008020D370D070E0E7EB68002BE2D09A6874
:107100001868136A98473046BDE8F087C1690E7A5F
:107110001640360206F4706646F00106E2E600BF4D
:1071200008050020000D0440000804405549435361
:107130002DE9F04F9B46FF238BF802309BF800307F
:1071400023F004038BF8003080238BF803306C4B62
:1071500091466C4A1B6A12688FB00590C3F30260B7
:107160008240C3F30233DA40674B0492994568DCEE
:1071700001330026100A0193A2FB032302900B9611
:107180000993089235460A91CDF83490EBB2002469
:1071900000930C9502E001340D2C4AD05B4B009A11
:1071A00013F80480C8F34009C8F3800A49EA0A03C7
:1071B0009342F0D1564B33F81470059B03FB07F74D
:1071C000049BB3FBF7F56B1EFF2B0393E3D807FB80
:1071D00005F52A46DDE90801EB1708F093FC0A9A49
:1071E000039E002A3AD1A0F5C330A0380028019BA5
:1071F000B8BF40428342CEDD039B8BF802309BF840
:1072000000300190C8F3000262F3861369F304139F
:107210006AF3C3038BF800309BF80130C8F3C10850
:1072200068F3010301348BF801300D2C0A9B0B939A
:10723000B4D10C9D4DB9019B0D9A93424FF00105BD
:10724000A4DC00200FB0BDE8F08FDDF83490019B86
:107250004B45F6DD03200FB0BDE8F08FCDE9069A6F
:107260000394DDE90889DDF804A00B9C05E0EB1729
:1072700040464946013E08F045FC029BB5FBF3F24F
:107280007F2A02FB00F035D90028B8BFFF30031277
:10729000A3F5C333A03B002BB8BF5B429A451DDD6D
:1072A0001A4903988BF80260095C9A469BF80030F3
:1072B00014460A46C1F3000161F38613069961F38F
:1072C0000413079961F3C3038BF800309BF8013076
:1072D000C2F3C10262F301038BF801309BF8003066
:1072E0008BF80340ED1B43F004032A468BF8003073
:1072F000002EBCD10B94CDF804A0039C4BE700BF3B
:1073000000E00140980500209F860100C025010093
:10731000A4250100F0B5EFF30383103B5BB203F14A
:10732000C0003849384C51F8202022F4803241F80E
:10733000202054F82300C3691A69036992B103B18C
:10734000F0BD046AA378426A03F07F0343F00403AC
:107350000021A370C160002AF2D0BDE8F040802275
:10736000FFF778BC046A002BECD005782DB3E18AD6
:10737000C1F304218D423FD990F802E0234F0EF073
:107380000306CEF3010E0CE092F800C084F80FC0A3
:107390000131A3EB0E0372448D42C0E903231FD9D0
:1073A000F3B1022EC268EFD1B2F800C04CEA070C6C
:1073B0001FFA8CFCA4F80EC0EAE790F802E0C2685D
:1073C0000EF00301022912D01178E1700EF0030EC5
:1073D000A3EB0E037244C0E90323002BB0D1B0E746
:1073E000227922F080022271002BA9D1A9E711880D
:1073F00041F47E41E181E9E7237962F3C713237108
:10740000F0BD00BF006000400C05002000FEFFFF43
:1074100010B582B0EFF30383103B5BB203F1C00001
:1074200059495A4C51F8202022F4803241F820204A
:1074300054F82340E369DB6813B1A369002B48D1FA
:1074400022894FF6FF739A4274D12078236AA8B933
:10745000A27802F00302022A13D05979A369C9B2B3
:107460000191ABB9636A23B120460422FFF7F2FB16
:10747000207838B3236ADA8AD2067DD0DA8AD10638
:107480007AD0198AA369C1F308010191002BE9D0D0
:10749000A278606902F0030201A908F01BFDD4E99B
:1074A0000521A37803F003031A44C91AC4E905218E
:1074B00029B9636A1BB101222046FFF7CBFB207874
:1074C0000028D7D123894FF6FF7293420ED102B024
:1074D00010BD636A0021C4E90511002BF7D0012219
:1074E000204602B0BDE81040FFF7B4BB1A0A1201F3
:1074F000274952FA83F351F8232022F0011222F493
:10750000404242F0040241F82320EFF310820123AD
:1075100083F310881F4B196811B11968013919607C
:107520001B681BB91C498020CB70C87082F310887F
:1075300002B010BDEFF31081012383F31088154BC7
:107540001A681AB91448C2704022C2701A6801320F
:107550001A6081F3108822890D49130A1B0153FA1E
:1075600082F251F8223023F0011323F4404343F018
:10757000050341F8223068E7BE221A7123894FF6CD
:10758000FF729342A3D0B1E7006000400C050020D9
:107590000008044008050020000D044010B5EFF37A
:1075A0000384103C0B4B64B253F82400D0E908214B
:1075B000937803F07B03937019B102220021FFF747
:1075C00049FB054AC03452F8243023F4803342F892
:1075D000243010BD0C0500200060004010B5EFF312
:1075E0000384103C194B64B253F82400037843B968
:1075F000837803F00303022B03D0036A5979C9B2DD
:1076000003E0036A198AC1F3080193F804C01CF06F
:10761000100F0CF0380206D093F81CC01CF0010FBC
:1076200008BF42F0400293F804C00CF0C70C83F886
:1076300004C0436A0BB1FFF70DFB054AC03452F892
:10764000243023F4803342F8243010BD0C05002090
:107650000060004010B5D0E901320021917093F92B
:1076600002303149044658090122203003F01F033B
:1076700002FA03F341F82030BFF34F8FBFF36F8F4F
:10768000636893F901305809203003F01F0302FAB0
:1076900003F341F82030BFF34F8FBFF36F8F636860
:1076A00093F904305809203003F01F0302FA03F362
:1076B00041F82030BFF34F8FBFF36F8F636893F9AA
:1076C00003305809203003F01F0302FA03F341F896
:1076D0002030BFF34F8FBFF36F8FEFF3108182F332
:1076E00010886368114A93F800C0D2F800014FF087
:1076F000004323FA0CF30343C2F80031D2F80031FF
:1077000081F3108863685A6922B1936810681B6A14
:10771000984763681B691BB19A681868136A984791
:107720000020206010BD00BF00E100E0006F0440B9
:1077300030B5436A85B004468C4601ADABB193E8E1
:10774000070085E807006268117883F804C0A26A20
:107750009A6019601846226A9047636A1BB195E8DF
:10776000070083E8070005B030BD2B46EBE700BFFC
:107770002DE9F84F0C460B78D1E9052103F1007390
:1077800003F560530162E16981625B010021C0E998
:1077900001430646416272B1516810680D680533B5
:1077A0006B6093684FF400221B682A609847054677
:1077B000002840F0108123697BB15968B2680D68D8
:1077C00018680332AA609A6813684FF000622A6052
:1077D00098470546002840F0078173681D6A93F8B2
:1077E0000A806A78AF78D97A02F0030242F080000A
:1077F00095F90220002A5A7AAABFFF274FF0040EFB
:107800004FF0000E012A19BF4FF0000C62464FF0F6
:10781000020C0522B8F1010F00F0E080012914BF2D
:1078200042F0800242F0C002597B00290CBF4FF0A9
:10783000EA084FF0E208EFF3108A012181F3108883
:1078400093F800906D4B4FF0004B2BFA09FBD3F8E7
:10785000009129EA0B09C3F80091D3F800318AF3AB
:1078600010885FFA82F9B2680023937092F804A03E
:107870004FF0840A82F804A0C0B24FF4784AA2F80C
:1078800014A0107082F802C082F806802878507028
:107890004020977482F807E082F80D9013725372BB
:1078A0009372D3725383D0740220107794F901201D
:1078B0006079534D534F05EB020C0001C0B28CF8B8
:1078C000000302F1C00E47F822604F484FEA521CF5
:1078D00050F82E804FEA8C0C0CF1604C0CF5614C8A
:1078E00063F3104802F01F0240F82E8001FA02F202
:1078F000CCF88021CCF8002094F9022094F806C03E
:1079000005EB020E4FEA0C1C5FFA8CFC8EF800C3EC
:1079100002F1C00E47F822604FEA521C50F82E8048
:107920004FEA8C0C0CF1604C0CF5614C63F3104881
:1079300002F01F0240F82E8001FA02F2CCF88021FA
:10794000CCF8002094F9032094F807C005EB020E50
:107950004FEA0C1C5FFA8CFC8EF800C347F82260DB
:1079600002F1C00E4FEA521C50F82E804FEA8C0CE8
:107970000CF1604C0CF5614C63F3104802F01F02EF
:1079800040F82E8001FA02F2CCF88021CCF80020D9
:1079900094F904C0227A65441201D2B285F800231A
:1079A0000CF1C00447F82C604FEA5C1250F82450E8
:1079B000920002F1604263F3104502F561420CF05F
:1079C0001F0C40F8245001FA0CF11D460F4BC2F871
:1079D0008011116033602846BDE8F88F00297FF4DC
:1079E00023AF42F040021FE76369002BF3D09A688F
:1079F0001868136A98472846BDE8F88F006F04405E
:107A000000E100E00C0500200060004053494353B2
:107A1000F8B50446806890F802C01D461CF030039B
:107A200033D1C4E905336368E561C4E9031216463E
:107A30001A6908468AB1536865611968ABB2CB818F
:107A400028B348600220CB7860F38303CB7093683F
:107A500010685B689847B8B963685A6952B14EB10B
:107A6000936810689F68A561ABB232460021B847A1
:107A700050B963682269196962B189B1A2689378C3
:107A800043F0F00393700020F8BD0820F8BD284BA8
:107A90004B60D8E7A268937843F0A0039370F2E7B5
:107AA0005A69A168002A8A7814BFF020702042EA3F
:107AB00000028A70E7D193F9013001215A0903F0DD
:107AC0001F0301FA03F320321A4941F82230BFF3B1
:107AD0004F8FBFF36F8F6369E269934206D2D4E997
:107AE000020101B3C95CC170013363616368597AF3
:107AF00001290BD093F901300E495809012203F0F6
:107B00001F0302FA03F341F82030BCE7012AF1D940
:107B100061698A42EED9D4E9020232B1525CC27084
:107B200001316161E6E7C170DEE7C270F8E700BFCE
:107B3000BC04002000E100E0FFF76ABFF8B51F4C6D
:107B40001F4B246A1B681746C4F302629340C4F3B8
:107B500002340E4623FA04F202214FF0FF3500FAF8
:107B600001F3D418013C94FBF3F4013CFF2C05F124
:107B7000010501F1020101DD032DF0D1AFB192FB4E
:107B8000F3F4013C84F30804601C80FB03031B0234
:107B900043EA10610002002307F0B4FFB0F5807FD4
:107BA00071F10001B4BFC7B200277378347065F378
:107BB0000103B77073700020F8BD00BF00E0014002
:107BC0009805002010B4EFF30383103B5BB2154916
:107BD000154C03F1C00051F8202022F4803241F806
:107BE000202054F823305A69D9698A4206D2D3E951
:107BF0000240A8B1805CE07001325A618A4202D032
:107C00005DF8044B70471A69002AF9D19A685DF84B
:107C1000044B937803F07B0343F0040393707047A5
:107C2000E070E9E7006000400C05002010B4EFF3BD
:107C30000383103B5BB21849184C03F1C00051F8A4
:107C4000202022F4803241F8202054F82330596952
:107C5000DA69914206D2D3E90240D0B1405CE070CB
:107C6000013159619969914207D298681A6940793E
:107C70004C1C9C615054D3E90612914206D19A687B
:107C8000937803F03B0343F0040393705DF8044BD7
:107C90007047E070E4E700BF006000400C05002082
:107CA00010B5EFF30384103C0A4B64B2012153F882
:107CB00024008268937803F003039370FFF738FD84
:107CC000C034054A52F8243023F4803342F824307B
:107CD00010BD00BF0C0500200060004010B5EFF3A0
:107CE0000384103C0C4B64B24FF0840C53F8240016
:107CF00083689A7802F003029A701A7983F804C0B4
:107D00000421FFF715FDC034044A52F8243023F44F
:107D1000803342F8243010BD0C0500200060004084
:107D200003685969A1B190F82D3070B5044603F08D
:107D3000FF0563B98A68038C96680868A1692A46BA
:107D4000B047E269C4E90852012384F8333070BDBA
:107D5000704700BF70B5866B82B004460B466D4617
:107D60003EB396E8030085E80300E26B33712368B5
:107D700032605A6912B194F82D10A1B19B6913B108
:107D800094F82D2052B9636B30469847A36B1BB112
:107D900095E8030083E8030002B070BD9A68186894
:107DA00013699847EFE7936810681B699847236841
:107DB000E4E72E46D9E700BFEFF30383103B5BB245
:107DC0000449C03351F8232022F4803241F82320A3
:107DD000704700BF0060004070B5EFF30383103BB5
:107DE0005BB26249C03351F8232022F4803241F85B
:107DF0002320EFF30383103B5D4A5BB252F823402C
:107E00002269137BC3F30000DB075CD494F82C30A9
:107E100094F82A10994216D094F82D1009B1022B2B
:107E200076D02046FFF77CFF236994F82820DA708B
:107E300094F82B2094F82C30013A013384F82B204D
:107E400084F82C3070BD94F8333003F0FF05002B1C
:107E50005BD1236A002B5ED094F82D10002961D0ED
:107E600094F8311000296AD0216884F831504869AB
:107E7000002874D08969002971D0E06902286ED980
:107E80008E68831E0868B668F42191709BB2A2695F
:107E90002946B0472268E3695269916810688E6884
:107EA000023B9BB22A462946B047E3692269022079
:107EB000023BC4E90803012184F833100023FF20AA
:107EC0009372D07070BD94F82D30B3B194F8313006
:107ED0009BB9636AA1695279CA54D4E9082394F81A
:107EE0002E10013A0133C4E9082321B3226952213B
:107EF0000123D17284F8303070BD00200121542359
:107F0000206284F82F10D37270BD84F8330070BDE6
:107F10005223D37270BD94F82E30002BE7D1542336
:107F2000D37270BD616AA069013B405C0131C4E954
:107F30000831D070C6E723695422DA7270BD636AD3
:107F4000A1695279CA54D4E90832013B0132012BAC
:107F5000C4E90832226904D0FF20D070B2E7012BB7
:107F6000ACD12023FF209372D070ABE700600040BB
:107F70000C05002010B582B0EFF30383103B374AA5
:107F80005BB252F823000269D37A23F00803D3725C
:107F900090F82F30002B3DD190F82A1003F0FF0C01
:107FA00090F82C3099421AD1036A53B990F82D10E9
:107FB00090F83040C1F10301C9B2B4B3D372FFF7F6
:107FC000C9FEEFF30383103B5BB22549C03351F880
:107FD000232022F4803241F8232002B010BDFBB1EF
:107FE00090F82D4004F0FF0134B1022B0ABF90F845
:107FF0002910614641F001014FF0000C82F80BC0DE
:10800000D17090F82B200133013A80F82B2080F8B2
:108010002C30D6E7F023D3720121FFF79BFED0E787
:10802000012909D090F82910E6E7F023D37293785C
:1080300003F0CF039370C2E70190FFF771FE019840
:1080400090F82A30012B05D190F82810026990F899
:108050002C30D1E7026990F82C30E3E70C050020C2
:1080600000600040F0B583B0EFF30384103C154B83
:1080700064B253F82450EF68BFB16A682B6992F973
:108080000D20121B18BF01226E46C3B193E80300F6
:1080900086E803001A706A695A601846B8472B6967
:1080A0001BB196E8030083E80300074AC03452F886
:1080B000243023F4803342F8243003B0F0BD33463B
:1080C000E8E700BF0C05002000600040EFF30383E9
:1080D000103B5BB2064A074952F823200120C03307
:1080E000107251F8232022F4803241F82320704787
:1080F0000C050020006000400B0A1B01044853FAE5
:1081000081F150F82130C3F3400300201370704711
:108110000008044010B4CBB201249C40A4B202B9C0
:1081200024040B0A5B0103F1804303F58023002044
:108130009C605DF8044B704730B4EFF3108401236A
:1081400083F310881C4B186818B91C4DE870402048
:10815000E87018680130186084F31088D4034FEA7F
:108160001120C9B219D40001154C084444F820204C
:10817000EFF31082012181F31088196811B1196899
:10818000013919601B681BB90C498020CB70C8707D
:1081900082F31088002030BC704701EB001C084CB3
:1081A00054F82C5025F4803544F82C5022F48035B6
:1081B00044F82C500001D7E708050020000D0440CA
:1081C0000008044070B5C36A84B004468C46164665
:1081D00001AD9BB193E8070085E8070083F808C06C
:1081E000226B1846C3E90026A26A9047E36A1BB1D6
:1081F00095E8070083E8070004B070BD2B46EDE763
:108200008268012370B580F820300226B323D37131
:1082100080F821605379044623F001035371C26949
:108220000D46FFF7CFFFA368DE705A7942F00102D6
:108230005A7194F82120012A16D094F8212002B115
:1082400070BD052DFCD194F82320002AF8D194F8B4
:1082500021201AB95A7A02F0F3025A72BF21012280
:10826000D97184F8232070BD4FF48872EA40D20798
:10827000E3D594F82320002AE2D1E8E730B583B0B3
:10828000EFF30383103B5BB24249C03351F8232024
:1082900022F4803241F82320EFF30383103B5BB2DA
:1082A0003D4A52F8234094F82230B3B9A368012222
:1082B00084F82220DA7CD2B28DF805209DF80520C2
:1082C00012F0010F5A7A14BF02F0F70202F0F30223
:1082D0005A72AC22DA7103B030BD94F820304BB939
:1082E000A3681B7A13F0080F20460CBF0421082155
:1082F000FFF786FF2269A3689AB9D97CC9B28DF8C5
:1083000006109DF80610197941F0100119711979BC
:1083100041F008011971197962F30411197103B060
:1083200030BDA1698A4209D0E268DB7C481CA061AB
:108330005354E3690133E36103B030BD022584F88F
:1083400021505979E26921F0010159712046062135
:10835000FFF738FFA3682169DD705A7942F0010206
:108360005A7191B9DA7CD2B28DF807209DF80720B6
:108370001A7942F010021A711A7942F008021A7141
:108380001A7961F304121A71A5E7A269E168DB7C2E
:10839000501CCCE7006000400C05002038B5EFF31E
:1083A0000383103B5BB22349C03351F8232022F4EE
:1083B000803241F82320EFF30383103B5BB21E4A67
:1083C00052F8234094F8203093B194F8213003F010
:1083D000FF0263B9A3692069A16898420DD0E269E0
:1083E000E0680132C05C88740133C4E9063238BDEC
:1083F00005212046FFF704FFE7E723680D4893F9BE
:108400000E3003F1C004002B50F8245062F31045E5
:1084100040F8245009DB5A09084C03F01F030120DF
:10842000603200FA03F344F82230CB7943F0400382
:10843000CB7138BD006000400C05002000E100E079
:1084400038B5EFF30383103B204A5BB252F8234068
:10845000A1680B795807C3F3800217D5CA7922F0B7
:108460004002C023CA7101E0013B02D0CA79520622
:10847000FAD4EFF30383103B5BB21549C03351F8D4
:10848000232022F4803241F8232038BD022584F8CD
:1084900021504B7962F300032046E2694B710721BA
:1084A000FFF790FEA168CD704B7943F001034B714B
:1084B00094F82130002BD1D1A369E269E068013240
:1084C000C05C88740133C4E90632C7E70C0500209C
:1084D0000060004010B582B0EFF30383103B3D4ACB
:1084E0005BB252F8230083685A7A910746D1D1B221
:1084F00011F00C0F35D0012280F8242090F82110C3
:10850000C269012963D0046981698C4256D803216C
:108510004FF0000EA024DC7180F820E080F822E00B
:1085200093F805C06EF3000C83F805C090F8244062
:10853000002C47D083F809E000240223C46180F8AE
:108540002130FFF73FFEEFF30383103B5BB222497C
:10855000C03351F8232022F4803241F8232002B0A6
:1085600010BDCA06EFD5DA7CD2B28DF807209DF88F
:108570000720DA7902F0EF02DA71E4E70022A021A5
:1085800080F82420D97180F8202080F822205979A1
:1085900062F30001597190F8241069B9DF219F221C
:1085A00019701A7000210223C26980F82130C1615C
:1085B0000121FFF707FEC6E75A72F3E7013AC261ED
:1085C0000321A5E7DF241C709F241C70B4E702215F
:1085D0009EE700BF0C0500200060004030B5836BB3
:1085E00083B004460A466D46A3B193E8030085E8CC
:1085F0000300E16B1A71626B196018469047A36B18
:108600001BB195E8030083E80300002384F82B30B6
:1086100003B030BD2B46ECE72DE9F04F0468DFF8DE
:108620006091656A6668DFF85C819DF924C04FEA55
:10863000011E01691F240C705F240C70DF240C7074
:108640002C7944F0E0040C74EC7844F0E0044C74B1
:10865000AC78240104F0700444F008048C702C7889
:108660006F789DF92850012C14BF0424052444EA96
:108670004704E4B2CC70404CA64214BF7726F726DC
:1086800009EB05044E7100275FFA8EFEB3268F7149
:10869000CE7184F800E305F1C00648F82500374C98
:1086A0004FEA551A54F826B04FEA8A0A67F3104B7E
:1086B0000AF1604A44F826B00AF5614A012605F03D
:1086C0001F0506FA05F5CAF88051CAF8005009EBF3
:1086D000030503F1C00A85F800E348F823005D09AB
:1086E000AD0054F82AB005F1604505F5614503F089
:1086F0001F0306FA03F367F3104B44F82AB0C5F8DA
:1087000080312B6009EB0C030CF1C00A83F800E305
:108710004FEA5C1548F82C00AD000CF01F0305F182
:10872000604554F82AC0914405F5614506FA03F303
:1087300067F3104C44F82AC0C5F880312B6089F8E3
:1087400000E348F8220002F1C000530902F01F02C2
:10875000964054F820209B0067F3104203F16043D9
:1087600044F8202003F561439F22C3F880611E6016
:108770000A70BDE8F08F00BF40420F00006000406B
:1087800000E100E00C05002010B483B0EFF3038398
:10879000103B5BB24849C03351F8232022F48032A9
:1087A00041F82320EFF30383103B444A5BB252F8B5
:1087B000233093F82D20BAB999691A69022903D890
:1087C000117941F040011171D969012917D0D27C8A
:1087D000D2B28DF8072001219DF8072083F82D10D3
:1087E00003B05DF8044B7047DA69002AF8D0032A19
:1087F0000ED0022A4ED0012A21D019690DE011793C
:1088000041F010011171117941F008011171DEE799
:1088100019690A7942F040020A711A6A5869C97CDA
:108820008154D3E907210131013AC3E90721002A24
:10883000D6D119690B7962F386130B71D0E793F8DF
:108840002A1089B319681E4C91F90F10480920307D
:1088500001F01F0102FA01F144F82010BFF34F8F1D
:10886000BFF36F8F1969C87940F08000C87108792B
:1088700040F01000087108794FF0040C20F0080057
:10888000087181F801C0487920F00100487183F82F
:108890002C20C2E719690A7942F010020A710A799C
:1088A00042F008020A71B8E719694A7A082002F012
:1088B000F7024A724870B0E7006000400C050020E3
:1088C00000E100E0EFF30383103B5BB23549C033B6
:1088D00051F8232022F4803241F82320EFF3038360
:1088E000103B5BB2304A52F8231091F82730002B2E
:1088F00037D191F829309BBBCB69086910B4002BA4
:1089000041D1C37923F08003C022C37101E0013A51
:1089100002D0C379DB09FAD10B68224993F91030F0
:1089200003F1C00C002B51F82C2022F4803241F8C6
:108930002C2009DB5A091D4C03F01F030121603272
:1089400001FA03F344F82230C3795DF8044B43F095
:108950004003C3717047022A09D191F8300030B941
:10896000704791F8260091F828200328F3D0086971
:1089700091F824C080F812C00132013B81F8282010
:1089800081F8273070470A6A4C69013B14F802C02D
:1089900080F812C00132C1E90732002BB1D05DF876
:1089A000044B7047006000400C05002000E100E02F
:1089B00010B4EFF30383103B2B4A5BB252F8233021
:1089C00093F829201AB193F82720012A47D0DA69B1
:1089D000D2B11969CA7922F04002C023CA7101E0FC
:1089E000013B02D0CA795206FAD4EFF30383103B5D
:1089F0005BB21E49C03351F8232022F4803241F883
:108A000023205DF8044B704793F82A10F9B11968D8
:108A1000174C91F90F10480920304FF0010C01F06C
:108A20001F010CFA01F144F82010BFF34F8FBFF380
:108A30006F8F1969C87940F08000C87104204870B0
:108A4000487962F30000487183F82CC0C2E71969C5
:108A50004B7A082203F0F7034B724A70BAE793F897
:108A60003020002AB3D1B4E70C050020006000409C
:108A700000E100E070B582B0EFF30383103B4C4A95
:108A80005BB2E02152F8234023695A7A5972D0B27E
:108A900002F00301D20616D55A78560615D5A1B9AB
:108AA0005A785506C2F380116CD4010742D594F868
:108AB0002B20002A52D194F82910B322C1F10301CE
:108AC000C9B2DA7125E00029EFD0E269012184F80A
:108AD0002B10002A39D020680025DD7190F9116033
:108AE00090F90F3090F90E20417B019690F910001B
:108AF00000902046FFF790FD94F82610A2692369A4
:108B0000E56184F82810226284F82C50B322DA71CF
:108B100001212046FFF762FDEFF30383103B5BB2B8
:108B20002449C03351F8232022F4803241F8232015
:108B300002B070BD94F82C20002AEDD04207EBD58E
:108B400094F82B20002AE3D1B5E794F82C20002AD2
:108B5000C1D194F82B20002AD8D0BCE7E26932B901
:108B600094F82C201AB994F82B20002ACED0002299
:108B700094F82600A169E26184F82800216284F853
:108B80002C20C3E784F82B105A7A216802F0F702F0
:108B9000496A5A72082058700A78012A14BF0222C2
:108BA0000322DA705A7942F001025A71B4E700BF29
:108BB0000C0500200060004010B582B0EFF3038484
:108BC000103C164B164964B253F8242050790B5CC4
:108BD00003F00303032B0FD0C03451F8243023F4E7
:108BE000803341F82430936823B1D268CDE9002066
:108BF0006846984702B010BD936823B1D268CDE9AA
:108C0000002068469847064AC03452F8243023F4BE
:108C1000803342F8243002B010BD00BF0C050020A4
:108C2000006000400346D3E90223002053607047F0
:108C3000D0E90123D26930B4D2E9011444F00044F0
:108C4000D0685C61D2E9045440F0004041F000413A
:108C50009861196100205D629C6230BC704700BF62
:108C6000002800DA704710B400F16043114C03F59E
:108C700061430901C9B283F8001344F820200E496A
:108C800000F1C00200F01F0C51F8223040098000B2
:108C900023F4803300F1604041F8223000F5614058
:108CA000012303FA0CF3C0F880315DF8044B036034
:108CB000704700BF0C0500200060004070B583695C
:108CC00084B004468C46164601AD9BB193E807007C
:108CD00085E8070083F804C0E2691A609E601846C0
:108CE00062699047A3691BB195E8070083E8070014
:108CF00004B070BD2B46EDE710B490F800C0486E8C
:108D0000BCF1030F1ED80130AAB9019C496BE407DE
:108D100054BF01F01F01C1F3044101F00C01A1F1A6
:108D20000401B1FA81F14909E2B921BB02225DF8DF
:108D3000044B5A6070479042E7D9013A5DF8044B02
:108D40001A6070470AB19042F8D8019C496BE40759
:108D500054BF01F01F01C1F30441090981F0010171
:108D6000002AE2D0824201D30029DFD103225DF83C
:108D7000044B5A6070470028D8D0F7E72DE9F04738
:108D80000B7C01220E4602FA03F103F5800303F582
:108D9000F0631B0211F0030FC0E902310CBF134650
:108DA00000230374D6E90513C3610023F769466005
:108DB00084B0054641618361EFF3108082F310882F
:108DC000924A317C0129D2F808118CBF6FF040041F
:108DD0006FF020042140C2F80811D2F8082180F376
:108DE0001088AC684FF425422260E362E363A36419
:108DF00096F80090327A7368B9F1030F4FEAC252C5
:108E000003F1FF3100F0E28084BF42EA09421946D3
:108E1000D7E906C0E2624FF0004222616261A261BE
:108E200000226262A262C4F81CC02062A1664FF0F8
:108E3000FF3061660021CDE90201D7F82CA0B9F11D
:108E4000000F40F0AA805B08013B02930121032040
:108E50006365D7F82880A365BAF1000F39D13B7854
:108E600003BBBA78534682B397F803C096F800E084
:108E70004FEA0C12BEF1020F42EA8C1200F0A980F8
:108E800040F2B7804FF0030C42EA0C0243EA02437F
:108E900043F08073B8F1000F20D1C4F83880C4F8D3
:108EA000888040E07A7896F800C01301BCF1020F88
:108EB00043EA821300F0908040F2A3800322134320
:108EC000BA7843F48073002ACED1B8F1000F05D1EF
:108ED000E3E7B8F1000F00F08180534698F80220D4
:108EE00098F803C0120642EA0C7298F804C042EAED
:108EF0000C42A263D8F80820C4F88C20002A63D161
:108F0000D8F80C20003A18BF0122BAF1000F58D14E
:108F100098F81CC098F81BE0C4F888204FEA4C6C05
:108F20004CEA4E22134397F8212097F820C05207AD
:108F300042EA4C3213434FF4AA02B9F1010F226402
:108F400002D10022E2642265EA68E2606363206382
:108F50002163717C96F912002A46FFF781FE97F88B
:108F6000221097F924002A46FFF77AFE97F823107B
:108F700097F925002A46FFF773FEB8F1000F06D0D7
:108F800098F8001098F901002A46FFF769FE204B77
:108F90002B60002004B0BDE8F087B9F1010F23D0A9
:108FA0000092F268686802AB2146FFF7A5FEDDE992
:108FB0000232110641EA024141F0030041F0010191
:108FC00046E7C4F88820B6E701229EE742F48032E3
:108FD0001EE74FF0090C57E7092270E7C4F8388004
:108FE0005346C4F88880A6E7494603204FF0FF3374
:108FF0002EE7BCF1000F0CBF4FF0060C4FF0090C30
:1090000042E7002A0CBF0622092258E7006F0440FD
:109010005450470030B4426892F91210D2690029C6
:10902000034611DB48092E4D01F01F0C20300124AE
:1090300004FA0CF445F82040BFF34F8FBFF36F8F55
:109040002848002440F8214092F92410002911DB1F
:109050004809234D01F01F0C2030012404FA0CF4C0
:1090600045F82040BFF34F8FBFF36F8F1D4800249A
:1090700040F8214092F92510002911DB4809184DCC
:1090800001F01F0C2030012404FA0CF445F82040B4
:10909000BFF34F8FBFF36F8F1248002440F8214079
:1090A000926AA2B192F90120002A10DB02F01F049B
:1090B00051090120A0402031094C44F82100BFF3A0
:1090C0004F8FBFF36F8F0749002041F822009A6845
:1090D000D9680020186030BC91605063704700BFB1
:1090E00000E100E00C05002030B4EFF30383103BF7
:1090F0005AB2184C02F1C00C54F82C1021F48031F3
:1091000044F82C10144951F82200416809780129CB
:1091100016D103F0FF0303F01F039940D0E9025377
:10912000AB600023AB64EB642B6554F82C50520900
:1091300063F310456032094B44F82C5043F8221079
:10914000436923B1002230BC1146FFF7B7BD30BCE4
:10915000704700BF006000400C05002000E100E007
:109160001E4B10B4C3600B7803F001034370EFF3A0
:10917000108C012484F31088194BD3F8082122F4B1
:109180008012C3F80821D3F808318CF31088EFF36C
:10919000108C84F310884278D2B9C468237962F3C2
:1091A000861323718CF310884A684B78D278C46890
:1091B000D201DB01D2B2DBB26271A3710123E37190
:1091C0000A780270074B43605DF8044B002070473B
:1091D000C268137923F080031371E3E700E00540D0
:1091E000006F044000434144C3684278002023F8E4
:1091F00012107047EFF31083012282F31088427837
:10920000C1683AB90A7942F040020A7183F31088C2
:10921000002070470A7942F080020A7183F31088B7
:1092200000207047EFF31081012383F31088427808
:1092300042B9C068037962F38613037181F3108821
:1092400000207047C268137923F08003137181F303
:1092500010880020704700BF0346EFF3108C0122F6
:1092600082F310884278C16862B9087962F3861087
:109270000871087A62F3861008728CF31088002057
:10928000586070470A7922F080020A710A7A22F047
:1092900080020A728CF3108800205860704700BF6B
:1092A000F0B5076A8BB006468C465FB3BE46BEE893
:1092B0000F006C460FC4BEE80F000FC49EE8030009
:1092C00084E80300BCE80F003D460FC5BCE80F0072
:1092D0000FC59CE803008EE80300F3693846984701
:1092E000336A6BB1EE469C46BEE80F00ACE80F0057
:1092F000BEE80F00ACE80F009EE803008CE8030016
:109300000BB0F0BD0F46E8E730B58BB0EFF3038349
:10931000103B5BB22E49C03351F8232022F4803237
:1093200041F82320EFF30383103B5BB2294850F848
:10933000235028220021684606F0F0FD6C6894F85E
:109340004D380020DBB284F84D08ADF80430B4F895
:109350004218C1F30012C90638D543F02003ADF816
:109360000430022394F8532884F8533894F8523880
:1093700003F01F03D2B2E11884F8532891F8202893
:1093800060F3820281F820282A68126800926946F8
:109390006A6A039328460492FFF782FFB4F84238C2
:1093A000DB0611D52B681A69127D6AB193F9153065
:1093B000002B09DB5A09084803F01F030121403242
:1093C00001FA03F340F822300BB030BD1346DBE75F
:1093D000006000400C05002000E100E02DE9F041B4
:1093E0008AB0EFF30383103B5BB23D49C03351F8C1
:1093F000232022F4803241F82320EFF30385103D2F
:10940000384B6FB2002253F82700D0E9008494F85B
:10941000533884F8532894F8526806F01F06DBB2DC
:1094200006F1200284F85338130105F0FF05E158D6
:1094300054F803C0C1F380738DF81930D8F8103098
:109440001B7B43EADC7303F001038DF81830002B1B
:1094500042D1C1F38A4104EB02120591938803F0D3
:109460000F03082B9C4628BF4FF0080C8DF81AC03C
:109470006BB10DF11F02002304EB061E0EEB03017E
:10948000013391F8061202F8011F9C45F6D1D8F875
:109490000030039626440093442386F820380023A6
:1094A00007934FF48063ADF804306946436A049330
:1094B000FFF7F6FEB4F84238DB070AD5002F08DBC9
:1094C0006B09094905F01F0501224033AA4041F804
:1094D00023200AB0BDE8F08121F06041BBE700BF66
:1094E000006000400C05002000E100E070B58AB08B
:1094F000EFF30383103B5BB22149C03351F82320C3
:1095000022F4803241F82320EFF30383103B1D4AFD
:109510005BB2012652F823506C6894F8532884F803
:10952000536894F85238D2B203F01F0384F85328DA
:109530000393E2184FF40063ADF804302B681B6806
:1095400000936B6A0493002382F82038694682F8FE
:1095500020382846FFF7A4FEB4F842389B070CD504
:109560002B6893F91730002B07DB5A09064903F0E3
:109570001F0340329E4041F822600AB070BD00BF18
:10958000006000400C05002000E100E08268117AD4
:1095900001F00101137AC3F340039942FAD1436801
:1095A0001978012908D1C16893F810C004484B1EEE
:1095B0009BB240F82C101380F123137200207047E7
:1095C000C0040020D0E90223013BF1219BB21380AB
:1095D00000201172704700BF10B48268117A0446EF
:1095E00001F00101137AC3F340038B42FAD163689F
:1095F000F42000211072117393F9123013F1210F2E
:1096000004D1002020605DF8044B70478B4210DBD2
:109610005A090C480121203203F01F0301FA03F319
:1096200040F82230BFF34F8FBFF36F8F636893F919
:109630001230054A002042F8234020605DF8044BB8
:10964000704700BF00E100E00C0500200B7C03F137
:10965000401303F500631B02F0B40446C0E9011394
:10966000EFF31085012383F31088087C384AC0F19A
:1096700003008340D2F8080120EA0303C2F808314E
:10968000D2F8083185F31088A26800231372137A88
:10969000C3F340009B078446F9D49072C8690D7AE1
:1096A000C3780678007903F00703002E41D1002D1E
:1096B00046D1107348686768002696735372431E3C
:1096C00095729BB2E0603D7C1380224B43F82500ED
:1096D00091F91230B34222DB4A7C03F1604000F57D
:1096E00061401201D2B280F800231B4A1B4842F8A5
:1096F000234003F1C0055A0950F82570920002F189
:10970000604266F3104740F8257002F5614203F0AD
:109710001F03012000FA03F3C2F880311360D1E97E
:10972000055200200E4B2561C4E905022360F0BC00
:109730007047502E06BF43F0500365463343B8E7E9
:1097400085F0020543EA0513DBB23546B1E700BFF9
:10975000006F0440C00400200C05002000600040A1
:1097600054474100F0B585B0EFF30383103B5BB283
:109770001C491D4C03F1C00051F8202022F4803216
:1097800041F8202054F82340D4E901120978137AD3
:109790000129DBB204D1F42103F0F003117213723A
:1097A0002769B7B1656901AECDB195E8070086E8D4
:1097B00007009B0644BF00232B71A3692B6028463A
:1097C000B84763691BB196E8070083E80700A26801
:1097D000137ADBB203F00F03137205B0F0BD354608
:1097E000E7E700BF006000400C05002003460020B2
:1097F0001A689B8A1380704703681B88C3F3C033C1
:1098000000200B70704700BF03681031002033F850
:1098100011301380704700BF43682DE9F041D1E952
:1098200001250C685E6903681FFA84F8A3F80480B8
:109830001FFA82F8A3F8148022F0405C1FFA85F822
:1098400024F0405E25F040572243A3F808804FEAF9
:109850001C4C3F0C4FEA1E4812F0405FA3F80680F4
:10986000A3F816C05F8154D1CA68002A00F0938023
:1098700015892F0522D5D2E900C7B2F80A80A3F8CE
:109880009050A3F89C80B2F80C80A3F89E801FFA39
:109890008CF8A3F89480CCF30B484FEA1C7CA3F817
:1098A000968083F892C01FFA87FCA3F898C0C7F38C
:1098B0000B4C3F0FA3F89AC083F89370AF051AD4EE
:1098C0000A8AA3F89050A3F88020F2786AB11A8827
:1098D000818A92B222F01F02BEFA8EFE1F32A2EBE4
:1098E0000E0292B211431A8081822C4BC0E90334DC
:1098F0000020BDE8F081977C92F813C047EA0C077E
:1099000083F8A670D789128AA3F8A870A3F8AA20B2
:10991000D6E7234FD7F82080224F3F68C8F3026C68
:1099200007FA0CFCC8F302181F4F2CFA08FCA7FB1F
:109930000C7C4FEA9C1C1D4F41F2883808FB0CFC44
:10994000A7FB0C7C4FEA9C4C0CF1010CBCF1070FFF
:1099500038BF4FF0070C12F080570AD05FFA8CF72F
:1099600015F0805F83F8DE7040F2011708BF4FF4F6
:109970008077920009D55FFA8CFC47F40077AA0043
:1099800083F8DFC048BF47F00207CA68BFB25F82F2
:10999000002A7FF46DAF154692E700BF4344415261
:1099A00000E0014098050020D34D621083DE1B4388
:1099B0002DE9F8430B880C465B0222696669C96889
:1099C000026203F1804303F5B82300220360816142
:1099D0004460C261317962790546A0788F074FEA09
:1099E0000223F17843EA403354BF43F0400343F489
:1099F0008863002900F0DF8043F42073022A08BF47
:109A0000764A9BB208BF32F821C0AB8218BF4FF034
:109A1000000C2279E17896F800E0D20342EA410294
:109A2000717842EA4110EFF31088012181F3108828
:109A30006B4F2288D7F80891C2F1100201FA02F2A6
:109A400029EA0202C7F80821D7F8082188F310880C
:109A500047F6FF572A6880B23B401380A2F810C037
:109A6000D08182F80CE03379980700F1AD8082F85C
:109A70008A3094F90630002B22DB227A594803F110
:109A8000604101F561411201D2B281F80023564ACA
:109A900003F1C00742F8235050F827105A099200EA
:109AA00021F4803102F1604240F8271002F5614252
:109AB00003F01F03012101FA03F3C2F880311360A0
:109AC00094F90730002B22DB627A464803F16041AB
:109AD00001F561411201D2B281F80023424A03F13B
