:10400000007F0020259E0000D59C0000859F0000B9
:10401000219E0000219E0000219E0000219E0000A4
:10402000000000000000000000000000219E0000D1
:10403000219E000000000000219E0000219E000043
:104040000000000000000000000000000000000070
:104050000000000000000000000000000000000060
:104060000000000000000000000000000000000050
:104070000000000000000000000000000000000040
:104080000000000000000000000000000000000030
:104090000000000000000000000000000000000020
:1040A0000000000000000000000000000000000010
:1040B0000000000000000000000000000000000000
:1040C00010B5054C237833B9044B13B10448AFF352
:1040D00000800123237010BDA0020020000000001A
:1040E000D03F010008B5034B1BB103490348AFF3B0
:1040F000008008BD00000000A4020020D03F0100A5
:10410000BFF34F8F0549064BCA6802F4E0621343C0
:10411000CB60BFF34F8F00BFFDE700BF00ED00E0B5
:104120000400FA05FFFFFFFF2DE9F0479846A2F5CE
:10413000FA73322B88BF3A4B3A4C0A9D84BF012256
:104140001A7082468CBF2068104689460BF042FBED
:1041500031A3D3E900230BF0A7FB0022324B0BF075
:10416000CDFC0BF051FEC0F1BD00BAF5FA7F206026
:104170008CBF2B4A20682D4B85BF01211170504404
:1041800040F23B128CBF1A601860B9F5FA7F8CBF01
:10419000234A2168264B85BF012111704944CF2253
:1041A0008CBF1A601960A8F1480240F6C8539A42C1
:1041B000DDE9087689BF1A4B1E4B01221A7098BFA1
:1041C000C3F80080012F89BF154B1B4B01221A70C9
:1041D00098BF1F60642E89BF114B184B01221A70C3
:1041E00098BF1E60012D89BF0D4B154B01221A701F
:1041F00098BF1D600B9B0A2B97BFDDED0B7A084B18
:10420000104BF8EEE77A86BF01221A70C3ED007AF0
:10421000BDE8F087AFF30080CDCCCCCCCCCC1C403B
:10422000D40200200400002000003440BC02002022
:10423000C80200200C000020E80200200800002036
:104240000000002014000020074B084A1B68126879
:10425000022193FBF1F392FBF1F29B1A00EE103A6C
:10426000B8EEC00A704700BFBC0200200C0000205E
:10427000074B084A1B681268022193FBF1F392FB7B
:10428000F1F2134400EE103AB8EEC00A704700BFD6
:10429000BC0200200C000020074B084A1B68126873
:1042A000022193FBF1F392FBF1F29B1A00EE103A1C
:1042B000B8EEC00A704700BFC80200200C00002002
:1042C000074B084A1B681268022193FBF1F392FB2B
:1042D000F1F2134400EE103AB8EEC00A704700BF86
:1042E000C80200200C0000200A4B0B4A1B68126811
:1042F000022093FBF0F192FBF0F2511A002993FB9C
:10430000F0F3D6BF9B1A07EE901A07EE903AB8EE7C
:10431000E70A7047BC0200200C0000200A4B0B4A41
:104320001B681268022093FBF0F192FBF0F2511A25
:10433000002993FBF0F3D6BF9B1A07EE901A07EE05
:10434000903AB8EEE70A7047C80200200C0000203F
:1043500038B504200AF0AAFC012804463ED1022008
:104360000AF0A4FC30BB214603200AF093FC3F4B2B
:104370001B68012B18D13E493E480AF002FB64201D
:104380000AF012FD3C493B480AF0FBFA64200AF0AF
:104390000BFD394937480AF0F4FA64200AF004FDAD
:1043A000364934480AF0EDFA4FF47A700AF0FCFC12
:1043B000FFF7A6FE324D2C68002C43D12B4B1B6817
:1043C000012B03D12F492B480AF0DBFA01232E4998
:1043D00028482B600AF0D5FA204638BD05200AF09F
:1043E00065FC012830D006200AF060FC01282DD0A1
:1043F00007200AF05BFC01282AD008200AF056FCAE
:10440000012827D009200AF051FC012824D00E20D1
:104410000AF04CFC012821D00F200AF047FC0128AB
:104420001ED010200AF042FC01281BD011200AF0F7
:104430003DFC012818D012200AF038FC0128CBD10D
:104440006424C9E70024C7E70A24C5E71424C3E7A6
:104450001E24C1E72824BFE73224BDE73C24BBE784
:104460004624B9E75024B7E75A24B5E700000020F6
:10447000E42E0100A811002015310100002F0100D9
:1044800060030020032F0100C83A010008B503486B
:1044900001F008FEBDE808400AF0C4BC7804002022
:1044A0007FB52C4C2368064633B92B4B19682B4B30
:1044B00018680CF0CDFC20602368294D13B92B68D7
:1044C000012B05D1254927480AF06AFA0023236009
:1044D000224921480AF00FFB234920480AF024FB17
:1044E0001E4901A80AF016FB204901A80AF066FB44
:1044F00001461A480AF0FFFA01A80AF092FA174991
:1045000001A8FEB90AF006FB194901A80AF056FBFA
:10451000014612480AF0EFFA01A80AF082FA0F49A0
:1045200001A80AF0F7FA134901A80AF047FB01466F
:104530000A480AF0E0FA01A80AF073FA00232B6097
:1045400004B070BD0AF0E6FA314601A80AF043FB58
:10455000DEE700BF10000020D8020020F00200209B
:1045600060030020A81100204B300100212F010022
:10457000312F0100342F010061B1012802D102293D
:1045800008BF0121044BDB680E2202FB013131F828
:104590000E0C70470121F5E76803002005EE103A84
:1045A000A44B9FEDA57AD3ED007ADFEDA46A67EE08
:1045B000877A012805EE902A87EEA67A57D102293C
:1045C00040F0DA809E4BDB681A88022A40F0A28015
:1045D0005B8807EE903AF8EEE76AF4EEC06AF1EE17
:1045E00010FA08D4F4EEE06AF1EE10FAD4BFB8EE97
:1045F000670AB0EE600A30EE411AF8EEE55AB8EEFE
:10460000C55A21EE251A8F4B8F4AC1EE057AC3EDAC
:10461000007A8E4B197899B977EEC76A37EE877AA8
:104620008B49C2ED006A76EE876A81ED007AB6EEBC
:10463000007A884966EE876AC1ED006A0121197027
:1046400092ED007AF4EEC77AF1EE10FA08DB804AB8
:10465000D2ED006AF4EEE67AF1EE10FA40F25881FB
:10466000F4EEC77AF1EE10FA6BD4794AD9E0022859
:1046700050D1012940F0FA80714BDA681388012B80
:1046800040F04881538807EE903AF8EEE76AF4EE7E
:10469000C06AF1EE10FA40D4F4EEE06AF1EE10FADE
:1046A0003EDCF8EE677A77EEC17AF8EEE56AB8EEAE
:1046B000C56A67EEA66A684B6849C6EE867AC3ED9E
:1046C000007A674B187898B937EE876A77EEC76A31
:1046D0006448C1ED006A76EE866A80ED006AB6EE47
:1046E000006A614866EE866AC0ED006A01201870B3
:1046F000D1ED006AF4EEE67AF1EE10FA13DB5949D7
:1047000091ED006AF4EEC67AF1EE10FA0BD8564B32
:10471000D3ED007AB0EE670A7047F0EE407AC2E758
:10472000F0EE607ABFE7F4EEE67AF1EE10FA08D424
:104730004C49D1ED006AF4EEE67AF1EE10FA40F35E
:10474000E98000221A70E5E7F0EE407AAAE0F0EE88
:10475000607AA7E0F4EEE67AF1EE10FAF1D43C4983
:10476000D1ED006AF4EEE67AF1EE10FAE9DCD389D5
:10477000022BCFD1138A2CE70129CBD1304BDB6838
:104780001A88012AC6D15B8807EE903AF8EEE76AEC
:10479000F4EEC06AF1EE10FA08D4F4EEE06AF1EE3D
:1047A00010FAD4BFB8EE670AB0EE600A30EE411AD4
:1047B000F8EEE55AB8EEC55A21EE251A264B274ADF
:1047C000C1EE057AC3ED007A254B197899B977EED9
:1047D000C76A37EE877A2349C2ED006A76EE876AA8
:1047E00081ED007AB6EE007A1F4966EE876AC1ED68
:1047F000006A0121197092ED007AF4EEC77AF1EEA9
:1048000010FA08DB174AD2ED006AF4EEE67AF1EE10
:1048100010FA7FF67CAFF4EEC77AF1EE10FA90D47E
:10482000104A92ED007AF4EEC77AF1EE10FA7FF7B3
:1048300071AF86E714000020000048420000C84223
:104840006803002024030020340300205A030020C2
:104850002C0300201403002020030020300300203C
:1048600059030020280300201003002002297FF4B0
:1048700051AF2B4BDA681388022B7FF478AF538843
:1048800007EE903AF8EEE76AF4EEC06AF1EE10FA3D
:104890003FF55AAFF4EEE06AF1EE10FA3FF757AF8A
:1048A000F8EE677A77EEC17AF8EEE56AB8EEC56A97
:1048B00067EEA66A1B4B1C49C6EE867AC3ED007AEA
:1048C0001A4B187898B937EE876A77EEC76A184896
:1048D000C1ED006A76EE866A80ED006AB6EE006A87
:1048E000144866EE866AC0ED006A01201870D1EDAA
:1048F000006AF4EEE67AF1EE10FAFFF62BAF0C49FF
:1049000091ED006AF4EEC67AF1EE10FA3FF622AFAE
:10491000084BFDE6D389012B7FF4FCAE138A33E705
:104920006803002024030020340300205A030020E1
:104930002C0300201403002005EE103AA44B9FED39
:10494000A57AD3ED007ADFEDA46A67EE877A0128B5
:1049500005EE902A87EEA67A57D1022940F0DA8038
:104960009E4BDB681A88022A40F0A2809B8807EEE3
:10497000903AF8EEE76AF4EEC06AF1EE10FA08D465
:10498000F4EEE06AF1EE10FAD4BFB8EE670AB0EECA
:10499000600A30EE411AF8EEE55AB8EEC55A21EE3B
:1049A000251A8F4B8F4AC1EE057AC3ED007A8E4BE4
:1049B000197899B977EEC76A37EE877A8B49C2EDD5
:1049C000006A76EE876A81ED007AB6EE007A884951
:1049D00066EE876AC1ED006A0121197092ED007AD6
:1049E000F4EEC77AF1EE10FA08DB804AD2ED006AE5
:1049F000F4EEE67AF1EE10FA40F25881F4EEC77A5E
:104A0000F1EE10FA6BD4794AD9E0022850D101298D
:104A100040F0FA80714BDA681388012B40F048812E
:104A2000938807EE903AF8EEE76AF4EEC06AF1EE8A
:104A300010FA40D4F4EEE06AF1EE10FA3EDCF8EE43
:104A4000677A77EEC17AF8EEE56AB8EEC56A67EE86
:104A5000A66A684B6849C6EE867AC3ED007A674B52
:104A6000187898B937EE876A77EEC76A6448C1ED5F
:104A7000006A76EE866A80ED006AB6EE006A6148EA
:104A800066EE866AC0ED006A01201870D1ED006AFA
:104A9000F4EEE67AF1EE10FA13DB594991ED006A73
:104AA000F4EEC67AF1EE10FA0BD8564BD3ED007A3D
:104AB000B0EE670A7047F0EE407AC2E7F0EE607A37
:104AC000BFE7F4EEE67AF1EE10FA08D44C49D1EDE6
:104AD000006AF4EEE67AF1EE10FA40F3E980002283
:104AE0001A70E5E7F0EE407AAAE0F0EE607AA7E00F
:104AF000F4EEE67AF1EE10FAF1D43C49D1ED006A19
:104B0000F4EEE67AF1EE10FAE9DCD389022BCFD18C
:104B1000538A2CE70129CBD1304BDB681A88012A54
:104B2000C6D19B8807EE903AF8EEE76AF4EEC06AC9
:104B3000F1EE10FA08D4F4EEE06AF1EE10FAD4BF08
:104B4000B8EE670AB0EE600A30EE411AF8EEE55AA8
:104B5000B8EEC55A21EE251A264B274AC1EE057A32
:104B6000C3ED007A254B197899B977EEC76A37EE0D
:104B7000877A2349C2ED006A76EE876A81ED007A72
:104B8000B6EE007A1F4966EE876AC1ED006A012120
:104B9000197092ED007AF4EEC77AF1EE10FA08DBA4
:104BA000174AD2ED006AF4EEE67AF1EE10FA7FF6DB
:104BB0007CAFF4EEC77AF1EE10FA90D4104A92ED81
:104BC000007AF4EEC77AF1EE10FA7FF771AF86E75C
:104BD00014000020000048420000C8426803002082
:104BE0003C0300204C0300205C0300204403002011
:104BF0001C03002038030020480300205B03002032
:104C0000400300201803002002297FF451AF2B4BF2
:104C1000DA681388022B7FF478AF938807EE903A16
:104C2000F8EEE76AF4EEC06AF1EE10FA3FF55AAF1B
:104C3000F4EEE06AF1EE10FA3FF757AFF8EE677A5C
:104C400077EEC17AF8EEE56AB8EEC56A67EEA66A55
:104C50001B4B1C49C6EE867AC3ED007A1A4B1878B6
:104C600098B937EE876A77EEC76A1848C1ED006ACF
:104C700076EE866A80ED006AB6EE006A144866EE4B
:104C8000866AC0ED006A01201870D1ED006AF4EE6A
:104C9000E67AF1EE10FAFFF62BAF0C4991ED006ABF
:104CA000F4EEC67AF1EE10FA3FF622AF084BFDE6BD
:104CB000D389012B7FF4FCAE538A33E768030020CD
:104CC0003C0300204C0300205C0300204403002030
:104CD0001C03002010B52DED028B012884B0F0EEEE
:104CE000408AB0EE608A40F09B80012960D1A349E0
:104CF00001A809F00FFFA24901A809F05FFF0146D2
:104D00009E4809F0F8FE01A809F08BFE9B4901A816
:104D100009F000FFFDEEE87A01A817EE901A09F0FD
:104D20005AFF0146954809F0E6FE01A809F079FE10
:104D3000924901A809F0EEFE924901A809F03EFF50
:104D400001468E4809F0D7FE01A809F06AFE8B499A
:104D500001A809F0DFFE8C4901A809F02FFF0146E8
:104D6000864809F0C8FE01A809F05BFE834901A846
:104D700009F0D0FEFDEEC87A01A817EE901A09F0EE
:104D80002AFF01467D4809F0B6FE01A809F049FE58
:104D90007A4901A809F0BEFE7C4901A809F00EFF7E
:104DA0000146764809F0A7FE01A809F03AFEA9E0FD
:104DB0000229EDD1714901A809F0ACFE744901A89E
:104DC00009F0FCFE01466D4809F095FE01A809F0C6
:104DD00028FE6A4901A809F09DFEFDEEE87A01A8C7
:104DE00017EE901A09F0F7FE0146644809F083FEB9
:104DF00001A809F016FE614901A809F08BFE61497E
:104E000001A809F0DBFE01465C4809F074FE01A828
:104E100009F007FE594901A809F07CFE5D499BE7AE
:104E200002286FD15C4C23680133022B08BF00239A
:104E3000012923606AD1514901A809F06BFE50494C
:104E400001A809F0BBFE01464C4809F054FE01A838
:104E500009F0E7FD494901A809F05CFEFDEEE87A9A
:104E600001A817EE901A09F0B6FE0146434809F072
:104E700042FE01A809F0D5FD404901A809F04AFE0B
:104E8000404901A809F09AFE01463C4809F033FE6A
:104E900001A809F0C6FD394901A809F03BFE3A49CD
:104EA00001A809F08BFE0146344809F024FE01A850
:104EB00009F0B7FD314901A809F02CFEFDEEC87AD2
:104EC00001A817EE901A09F086FE01462B4809F05A
:104ED00012FE01A809F0A5FD2368012B0ED1274978
:104EE00001A809F017FE274901A809F067FE01464D
:104EF000224809F000FE01A809F093FD2368002B69
:104F00003FF446AF04B0BDEC028B10BD0229E3D1E3
:104F10001A4901A809F0FEFD1D4901A809F04EFE3D
:104F20000146164809F0E7FD01A809F07AFD13498A
:104F300001A809F0EFFDFDEEE87A01A817EE901A3E
:104F400009F049FE01460D4809F0D5FD01A809F018
:104F500068FD0A4901A809F0DDFD0A4901A809F028
:104F60002DFE0146054809F0C6FD01A809F059FDCE
:104F7000024901A809F0CEFD064991E7F0020020A0
:104F8000362F0100342F0100512F0100A22F010004
:104F90006C2F0100872F01006403002010B50C4C1A
:104FA0004FF482702461C4E90B440BF06BF90023C9
:104FB000A0630430E063C4E90033064C0648214690
:104FC00009F07AFD21460548BDE8104009F074BD9E
:104FD000680300204B300100F0020020D8020020BE
:104FE00008B5064809F01DFD054809F01AFD054BF6
:104FF000986BBDE808400BF04DB900BFD802002007
:10500000F002002068030020F8B5836B0F4FAE223A
:105010001A70836BC1225A70836B90F840209A708B
:10502000836B90F84120DA7090F84140866B04342D
:10503000E4B23546AB1BDBB29C4205D915F8011B27
:10504000384600F061FCF5E72046F8BDAC030020CF
:105050002DE9F0410E4615460AB100231380441E87
:10506000DFF82480A719BC420BD00021404600F095
:105070004BFC04F8010F002DF5D02B881844288034
:10508000F1E73046BDE8F081AC030020F7B500251C
:1050900004462F462E46002201210DF10600FFF79F
:1050A000D7FF002837DB9DF806304CF2AF1245EAF7
:1050B0000325954226D1012384F842302A4B002251
:1050C0001A7094F84250A06B002D38D000220421B1
:1050D000FFF7BEFF002827DBA06B037884F8403081
:1050E000417884F841100DF106024488FFF7B0FFC3
:1050F000002819DBBDF80630A3420CBF00206FF07A
:10510000020011E04CF2AE12954203D1002384F864
:105110004230D6E71D46032E0ED9032F06D9124B77
:1051200001221A704FF0FF3003B0F0BD192009F0D2
:105130003FFE0137FFB200260136F6B2ABE72A4642
:105140000221FFF785FF0028EEDBA06B037884F8CF
:105150004030417884F841102A46FFF779FF00EA91
:10516000E07000B2E0E700BFEC020020012310B5C0
:1051700080F84130C36B00221A700C23044680F87B
:105180004030FFF741FF2046FFF780FF48B994F811
:1051900040300D2B05D1A36B1A88A2805B88E38079
:1051A00010BD4FF0FF30FBE72DE9F041B34C012378
:1051B000C4B06374204609F00BFF0028FAD0B04D4C
:1051C0002C68012C39D14FF47A7009F0EDFDAD4B0C
:1051D000AD491A6804A80BF01BFE04A9A74809F002
:1051E000E9FB642009F0E0FDA849A44809F0C9FBE7
:1051F000642009F0D9FDA649A04809F0C2FB64204B
:1052000009F0D2FDA2499D4809F0BBFB642009F0DA
:10521000CBFDA049994809F0B4FB4FF47A7009F02E
:10522000C3FD062300939C490223224604A80BF0E9
:10523000EFFD04A9914809F0BDFB0021022009F00F
:1052400011FD0121032009F00DFD0021042009F0CA
:1052500009FD0021052009F005FD0021062009F0C7
:1052600001FD0021072009F0FDFC0021082009F0C4
:10527000F9FC0021092009F0F5FC00210E2009F0BD
:10528000F1FC00210F2009F0EDFC0021102009F0B5
:10529000E9FC0021112009F0E5FC0021122009F0B1
:1052A000E1FC7E487E4C00F0F7FD7E4A029203222C
:1052B0008DF80C20012202AB8DF80D2093E806003A
:1052C000764800F095FE09F0ADFD41F287370646BD
:1052D0004FF00E0809F0A6FD801BB84219D8A4F8BB
:1052E00040802046FFF790FE2046FFF7CFFE0028C3
:1052F00040F09B8094F840300F2B40F09680A36BD9
:10530000236094F94130002BC0F28F806448FFF78E
:105310002DFF2968012900F08D80634F604EE06BFE
:10532000212239460BF0A6FD42F20213A4F84030C8
:105330003046FFF769FE3046FFF7A8FE38B9A36B89
:105340001B68002B40F390805548FFF70FFF574A2A
:10535000E36B12681A704FF48873A4F84030504819
:10536000FFF752FE4E48FFF791FE4D48FFF7FEFE55
:10537000E36B4B4800261E70E36B5E70E36B9E7020
:105380004FF44573A4F84030FFF73EFE4448FFF762
:105390007DFE474AE36B12681A70E36B40485E700B
:1053A00040F21623A4F84030FFF72EFE3C48FFF7EA
:1053B0006DFE41F2883009F0F7FC2B68012B1CD1FF
:1053C0003C492E4809F0DDFA642009F0EDFC304933
:1053D0002A4809F0D6FA642009F0E6FC2C4927484F
:1053E00009F0CFFA642009F0DFFC3349234809F0C3
:1053F000C8FA4FF47A7009F0D7FC2B68012B11D151
:105400002E4B1B78002B34D02D4B2E491A6804A844
:105410000BF0FEFC04A9194809F0CCFA4FF47A709D
:1054200009F0C2FC44B0BDE8F08141F2883009F0D7
:10543000BFFC4FE7244B254A1B781370002B3FF429
:105440006CAF032009F026FC214B22491A6804A8FE
:105450000BF0DEFC04A9094809F0ACFA4FF47A70AD
:1054600009F0A2FCFEF74CFE4FF47A7009F0A0FCA4
:1054700055E71949014809F084FAD3E7A81100203B
:105480000000002024000020A52F0100D32F0100E0
:1054900015310100E22F0100E52F0100AC030020CF
:1054A0006803002080841E002230010008000020D4
:1054B000E80200203D30010048300100D402002005
:1054C000180000204C300100EC020020ED0200200A
:1054D0001C000020CD2E0100C83A010070B53B4BE6
:1054E0001D783B4B90B01D70BDB10121032009F028
:1054F000D1FB384B1B68012B09D1374B37491A6850
:1055000068460BF085FC6946354809F053FA4FF4BC
:105510007A7009F049FCFEF7F3FD022009F0C6FBA2
:1055200008BB0121032009F0B5FB2A4B1B68012BA6
:10553000EDD12C492A4809F024FA642009F034FC02
:105540002949274809F01DFA642009F02DFC264955
:10555000234809F016FA642009F026FC2349204864
:1055600009F00FFAD3E7224C4FF40876E560257274
:10557000FF252369DB6B1D702369DB6B5D70206980
:10558000A0F84060FFF740FD2069FFF77FFD60B99C
:10559000236993F84020212A0AD19A6BE26093F89C
:1055A00041300E22B3FBF2F32372207A10B070BDAB
:1055B000032A05D19B6B1B7803F0FB03FA2BF4D174
:1055C0004FF4FA7009F0F4FBD3E700BFEC020020BF
:1055D000ED0200200000002020000020CC2E010061
:1055E000A8110020E42E010015310100002F010058
:1055F000680300202DE9F84FFEF7AAFE0028FBD033
:10560000FEF7A6FE6D4C6E4D206009F00BFC2B687A
:10561000C01A23689842C0F0CF80FEF737FF286099
:10562000FFF75CFF674B002814BF012200221A70AD
:10563000654A664B127A1A609B4600F0BD8020686E
:10564000FEF72EFFDBF80060012E3AD10021304634
:10565000FEF792FF5E4B5F4D18605F4BDFF890A145
:1056600093ED000A5D4BDFF88091D3ED000A5C4BAF
:10567000DFF8788193ED001A5A4F012804464FF065
:1056800048034FF014027CD10146FEF787FFD9EDA5
:10569000000A85ED000A2146482314229AED001ADB
:1056A00098ED000ADBF80000FFF746F9F0EE400A3B
:1056B00087ED000A95ED000A2146DBF80000FFF7B0
:1056C00009FBDBF80040022C76D1DFF810A1DFF8EF
:1056D00008914349DAED000A91ED001A99ED000AAC
:1056E0003C4DDFF80C81404F3E4E204648231422AB
:1056F0000121FEF753FF3D4898ED001A85ED000AA1
:1057000048231422D7ED000A90ED000ADBF80000D0
:105710000121FFF711F9DBF8000086ED000AF0EE39
:10572000400A012195ED000AFFF7D4FA2C49DAED81
:10573000000A91ED001ADBF8000099ED000A2146FD
:1057400048231422FEF72AFF284885ED000AD7EDEA
:10575000000A98ED001A90ED000ADBF800002146DF
:1057600048231422FFF7E8F8214686ED000AF0EE00
:10577000400ADBF8000095ED000ABDE8F84FFFF79E
:10578000A9BA02213046FEF709FFD9ED000A85EDDE
:10579000000A0221482314229AED001A98ED000A0B
:1057A000DBF80000FFF7C8F80221F0EE400A87EDB1
:1057B000000A95ED000A80E7BDE8F88FE4020020BA
:1057C000FC02002058030020680300200003002092
:1057D0000403002050030020C4020020C002002067
:1057E0000803002054030020CC020020D002002037
:1057F0000C0300201FB54FF4E1311A4809F027FBD4
:1058000000230222CDE902320522CF2140F23B10D3
:10581000CDE9003240F20D22B423FEF785FCFFF7FC
:10582000C3FCFEF711FD104B83ED000AFEF720FDCF
:105830000E4B83ED000AFEF72FFD0D4B83ED000AA2
:10584000FEF73EFD0B4B83ED000AFEF74DFD0A4BC4
:1058500083ED000AFEF762FD084B83ED000A05B0F8
:105860005DF804FBA8110020C4020020C002002043
:10587000D0020020CC020020080300200C030020EE
:105880007047704770477047704790F82C20436B03
:1058900010B504462AB16C309847002384F82D30A7
:1058A00010BD3C30F8E7F8B5427C036804460E466C
:1058B000CFB29B680D0A62B939469847236860F3F6
:1058C00007069B6829462046984760F30F26B0B22A
:1058D000F8BD29469847236860F30F269B68394630
:1058E0002046984760F30706F1E7FFFF0179036858
:1058F000034A0333012918BF0221D154704700BF66
:10590000280000207047FFFF70B590F82C3086B05B
:1059100004468DF80F103BB3836A1A4D0222EA54F5
:1059200007230093866B01230DF117020DF10F0180
:105930006C30B04709F076FA0646A36AEB5C012B9F
:1059400007D009F06FFA801BB0F57A7F01D200BF53
:10595000F3E7A36AEB5C022B10D1236820461B6B94
:105960009847002006B070BD436C9DF80F201A7157
:10597000DA78D209FCD01B798DF817309DF8170022
:10598000F0E700BF28000020F7B51346044608469C
:10599000002900F0898094F82C2022B3A26A434D9C
:1059A0000226AE5407220092A66B0A4604F16C0050
:1059B000B04709F037FA0646A36AEB5C012B07D023
:1059C00009F030FA801BB0F57A7F01D200BFF3E70F
:1059D000A36AEB5C022B67D123681B6B204603B0E4
:1059E000BDE8F040184703F0030C9B085AD0616CE7
:1059F0000D7862F3861520220D70CA720A8A02257C
:105A000065F30B220A820A7842F040020A70CA78D3
:105A10009506FCD502684A60012B18D0CA78920618
:105A2000FAD542684A6002276FF0030E0EFB070E9C
:105A30003E46F51B9E420CD2CA78D209FAD050F8E5
:105A400026204D684A604EF826500136F1E71F4681
:105A5000EAE79D4207D2CA78D209FAD04A6840F8EC
:105A600025200135F5E70B786FF386130B70402383
:105A7000CB720B8A072262F30B230B820B7843F065
:105A800040030B70AD0043196044284483420BD09F
:105A9000626C19781171D178C909FCD0127903F8B8
:105AA000012BF3E71D46EDE703B0F0BD2800002011
:105AB00010B5CC21044609F037FD204610BDFFFF8C
:105AC00070B5124D0560C361114D9DF810304560F1
:105AD0000126002580F82030DF2305724672C5605C
:105AE00005744674C0E90512C0E9095580F82C50C8
:105AF00080F82D50C0E90C55856380F8993080F806
:105B00009A3080F89B3080F89C3070BD683101007D
:105B100040420F002DE9F04F8FB01E46B2F1000851
:105B20009DF86430DDF860B0019304460ADB002E76
:105B300008DBBBF1000F05DB884503DA8E4201DA92
:105B40008B4504DB0023237063602372ADE00DF10D
:105B5000200A04225FFA88F150460AAF09F04CFC93
:105B60000CAD0522F1B2384609F046FC06225FFA78
:105B70008BF1284609F040FC0022CDE90222CDE954
:105B8000047500929146CDF81CA0079B009933F84C
:105B900011304FEAA31A03F001000AF01F05069026
:105BA0004FF0000C4FF0030E23B30498009930F827
:105BB0001100F8B1059830F81100D8B1049830F808
:105BC0001C708AEA9710C00614D105986FF0010185
:105BD00001FB0E00C0888AEA9011C9060AD1069A14
:105BE00012B3019A022A19D0019ABAB1CDE9027012
:105BF0002A469946BEF1010ED6D10CF1010CBCF13A
:105C0000030FCFD1009B0133032B0093BDD1154669
:105C1000B9F1000F04D0DDE902704B4607B130B98D
:105C200000232370656090E7019A012ADBE713F0F7
:105C3000010933D0092DF3DC17F4F04F274F0CBFC7
:105C40004FF080624FF0A06213F4F04F0CBF4FF0A2
:105C5000806A4FF0A06A42F4803210F4F04F37F8B7
:105C600038101F480CBF4FF080694FF0A06902F058
:105C700047FA4AF4803237F83610194802F040FAF1
:105C800049F4803237F83B10154802F039FA4FF0EA
:105C9000010984F800906560012356E7022D08DDB4
:105CA00084F80090656084F8089020460FB0BDE845
:105CB000F08F0A4F0B4A37F83810094802F020FAE3
:105CC00037F83610074A064802F01AFA054A37F83C
:105CD0003B10034802F014FADBE700BF703201000A
:105CE00068120020000001060B79013BDBB2022B99
:105CF00098BF094A10B59EBFD45C084AD25C4B7964
:105D000088BF0022B3FA83F388BF14465B0903708F
:105D10004270847010BD00BF593101005C31010038
:105D200073B500F198030364D0F8B0300366D0F87F
:105D3000B430836690F8983003F5800303F5E4638C
:105D400004460E4600251B024566436401A8FFF782
:105D5000CBFFB4F8C3303068ADF80030694600F0CE
:105D6000D1FC636C1D70EFF31082012383F3108864
:105D70002B4994F898604868C6F11306B34020EAAE
:105D800003034B604B6882F3108894F8BE2094F8AC
:105D9000BF10636C8A40D2B25A7020229A709DF86C
:105DA00000209A72DA7A42F04002DA7293F82020E8
:105DB00042F0010283F8202010221D735D739D7351
:105DC000DA7394F8A1201AB91A7842F008021A700E
:105DD0001D821A8A9DF8061061F300021A821A8A3F
:105DE0009DF8051061F341021A821A8A9DF801108C
:105DF00061F383021A821A8A072161F30B221A8245
:105E00001A8A9DF8041061F30C321A82DA78DD7078
:105E10001A7842F040021A70024BE36302B070BD80
:105E2000FC6F04404950535237B5044668460D464E
:105E3000FFF75AFFD4F8C830ADF8043001A91B0CA5
:105E4000002228688DF8063001F016FE626F9DF87A
:105E500001309DF80240507B91799B0143EAC413C5
:105E600003439DF8000041EAC0019DF8050000F0E1
:105E7000030040F0800010709DF804005070DBB209
:105E80005373CBB2937103B030BD90F82C300BB18B
:105E9000FFF7CABFFFF744BF2DE9F043044689B0BE
:105EA00000F011F994F820300193E3690093014662
:105EB000D4E9052302A8FFF72DFE9DF80820039BD7
:105EC0009DF81060636284F82C20002A74D0414A47
:105ED0002263414A6263414AA263DA1CA26204F16E
:105EE000C802C4F8B8203E4A84F898300C2384F8DD
:105EF0009D3084F89E3084F89F3084F8A0300123D0
:105F000084F8A43084F8BC3084F8C33094F8C430EA
:105F1000C4F8B020002565F3010384F8C43094F878
:105F2000C93084F8A15065F3010384F8C9300B230C
:105F300084F8C83084F8A25084F8A35084F8A5509F
:105F4000C4E92A55C4F8B45084F8BD5084F8BE5052
:105F500084F8BF5084F8C05084F8C15084F8C2500F
:105F600084F8C55084F8C65084F8C75084F8CA50E5
:105F7000211D2046FFF789FF94F82C30BBB1636ADE
:105F80008DF81C3004F16C0704F198080597CDF8E2
:105F9000188007F0DBF80A2105AA07F0D1FA236B75
:105FA000814641463846984790B906EA090684F882
:105FB0002D6009B0BDE8F0830A4921630A49616395
:105FC0000A49A16304F1BC01A362C4F8B8108BE7CD
:105FD0002E46ECE7A9760000997500005D7A000076
:105FE000ED580000E1620000DD610000E96600009C
:105FF00037B590F82D306D46044685E8060013B994
:106000000368DB6A9847E268009B9A4204D1228ABF
:10601000BDF804309A4207D020462946FFF735FFE5
:106020000098AB88E060238203B030BD07B5012340
:1060300000930B220D230C210248FFF741FD03B012
:106040005DF804FBAC03002070B50025044629462A
:1060500000F8045B10220AF05BF9104B656103F154
:10606000200604F11805186859682A4603C2083347
:10607000B3421546F7D10A4B04F1380203F1080682
:1060800018685968154603C50833B3422A46F7D144
:1060900018689B882860AB80204670BD9C31010049
:1060A000BC310100037813B1043000F08FB87047A1
:1060B0000148FFF7C9BF00BF7804002008B508F009
:1060C0005FFE002008BD1B207047FFFF034AB2F8A7
:1060D000CC3043F08003A2F8CC3070470000094078
:1060E00037B501210D2008F0BDFD00210D2008F07D
:1060F000D1FD68460722032109F07EF9BDF8003082
:106100001C4CC3F384130125684607220521E5547E
:1061100009F072F9BDF80030C3F384136846072212
:106120000621E55409F068F9BDF80030C3F3841383
:10613000684607220921E55409F05EF9BDF80030F0
:10614000C3F38413684607220A21E55409F054F981
:10615000BDF80030C3F3841307220B216846E554D1
:1061600009F04AF9BDF80030C3F38413E55403B0D5
:1061700030BD00BF360A0020F0B44B788E780A7824
:10618000CD780F4C1B013603A75C0C794A7906F4D5
:1061900040562D02DBB205F44071334307F003058E
:1061A0000B43D201E101074C2B43C9B2064DA1714B
:1061B000D2B26380227205600020F0BC704700BF3D
:1061C000483301000042044054445700024B002071
:1061D000FF2218701A707047004204404368002282
:1061E00010B502605A69044622B1936810681B6AB0
:1061F000984763681A6922B1936810681B6A9847C8
:10620000636893F90220002A0EDB53092033012131
:10621000224802F01F0201FA02F240F82320BFF3E5
:106220004F8FBFF36F8F636893F90120002A0EDB55
:10623000530920330121194802F01F0201FA02F22A
:1062400040F82320BFF34F8FBFF36F8F636893F93C
:106250000330124859092031012203F01F0302FACA
:1062600003F340F82130BFF34F8FBFF36F8F6368A4
:1062700093F904305909203103F01F039A4040F884
:106280002120BFF34F8FBFF36F8FA3681A786FF38E
:1062900086121A700020DA78D87010BD00E100E094
:1062A00070B5836A84B004460E46ABB193E807002C
:1062B00001AD85E807006168E26A097819601E711E
:1062C0009A601846636A9847A36A1BB195E807006D
:1062D00083E8070004B070BD01AD2B46EBE700BFBB
:1062E0002DE9F04F0B780D6903F5800303F5E463A6
:1062F0001B0283B00E46044603F104081DB3D5E922
:1063000001120B681268C3F808804FF00060186033
:1063100028689047074690B9736923B3D3E9011001
:106320000A680768C2F804804FF4002010601868FB
:10633000B8470746B8B1AB6828681B6A9847384623
:1063400003B0BDE8F08F4A699AB1D2E901100B6839
:106350000568C3F804804FF4002018601068A8474F
:1063600007460028EBD1337803F5800303F5E46397
:106370001B02D6E90621707A666000256262E1623E
:10638000A360A562002800F0F980A8464FF0B00C89
:10639000727B316AF77AB37A0E78120342EA4702C7
:1063A0001A430EB145F0B10C4B78CE788F7891F846
:1063B00004E05D012CEAC31C45EA430545EA0C05EF
:1063C00022F07003B7403201BEF1000F06D0BEF1DB
:1063D000020F0CBF4FF0300E4FF0200E4E792EB151
:1063E000012E14BF48F0010848F003080E7A91F816
:1063F00006A006F0030642EA86021A43002840F08F
:10640000C3804B7A009391F80B908B7A019342F4FE
:106410006042EFF310804FF0010C8CF3108863683A
:106420005D4E1B78D6F804B0C3F113030CFA03F3E6
:106430002BEA03037360736880F31088D4E90103C7
:106440004FF0000BEDB2FFB2DE7890F9026083F8F6
:1064500003B01D705F7083F802E0C97999729DF8EE
:10646000001019735FFA88F892B29DF804105973FE
:106470005E4583F80E9083F80F801A8283F820A07F
:10648000C0F2878083794549454A06F1604505F5A4
:1064900061451B01DBB285F8003341F8264006F167
:1064A000C00573099B0052F8257003F1604303F5A2
:1064B000614306F01F060CFA06F66BF3104742F82C
:1064C0002570C3F880611E6090F90130002B21DB3C
:1064D0004279334E03F1604505F561451201D2B2B0
:1064E00085F8002303F1C00541F823405A0956F806
:1064F0002570920002F160426FF3104746F8257054
:1065000002F5614203F01F03012505FA03F3C2F807
:106510008031136090F90420037A224E204F224DDF
:1065200006EB020C1B01DBB28CF8003302F1C00C4D
:1065300041F8224057F82CE053099B006FF3104EAE
:1065400003F1604347F82CE003F56143012702F0B3
:106550001F0207FA02F2C3F880211A60C37990F98A
:106560000320002716441B01DBB2384686F80033AF
:1065700041F82240256003B0BDE8F08F4FF0B80C21
:1065800008254FF0100803E74FF00009CDE9009906
:106590003FE7024998E700BFFC6F0440EC1200207F
:1065A0000060004000E100E049505352F8B50F464A
:1065B000416804464E699DF81800E7601D460023B7
:1065C0002261E561C4E9053384F82000E6B1716811
:1065D000A5610F2809685CD9CB78022060F3051308
:1065E000CB708878022363F38300ABB2CB818870D1
:1065F0008A60002A60D0B36830685B6898470028DA
:1066000046D1616894F820000B6923B35A6865612C
:1066100011680F28CA7843D807288ABF01206FF372
:10662000051260F30512CA70CA780220ADB260F399
:106630008302CD81CA704F60002F4AD0A568986848
:106640002A784668186813466FF345132B70B047D5
:10665000F0B994F82000A168CA7A0B8A0F28D2B248
:106660009BB222D922F0400242F020020F2802D928
:1066700001308008053823F4706343EA002080B2BB
:10668000D3B2CB7208820B7843F060030B7000200A
:10669000F8BD072817D8C87863F30510C870A0E7BD
:1066A000022060F30512CA70BEE7072894BF42F0CB
:1066B000400222F06002D9E7C3B262F383030848C4
:1066C00088608B7097E7CB78012060F30513CB705F
:1066D00087E7D2B20348486067F38302CA70ADE728
:1066E000C0040020C404002030B484689DF8085021
:1066F0002478640603D4029530BCFFF757BF082006
:1067000030BC7047204A214B126A1B6810B4C2F398
:106710000264A340C2F30232D340421E1344B3FBCF
:10672000F0F0B0F5805F25D801281AD9B0F5007FC8
:1067300024D9B0F5806F24D9B0F5006F8BBF10233A
:106740000823032402244A78013864F30102184420
:10675000B0FBF3F0013808704A7000205DF8044B7C
:1067600070474B785DF8044B00206FF301034B70CA
:106770000870704706205DF8044B70470223002420
:10678000E1E704230124DEE700E001407413002068
:1067900030B4EFF30383103B5BB203F1C0011C4A3A
:1067A0001C4C52F821006FF3104042F8210054F8BD
:1067B0002330D3E906218A4212D018699C6868B157
:1067C00093F820500F2D18D9616840F82210D9692C
:1067D00001328A429A6103D030BC70476068F7E7A3
:1067E0005B680D4993F90330012203F01F005B0938
:1067F000824041F8232030BC7047072D03D821790F
:106800008154D969E4E7A48820F81240E0E700BF8A
:1068100000600040EC12002000E100E0F0B4EFF373
:106820000383103B5BB203F1C0022849284C51F8A6
:1068300022006FF3104041F8220054F823305C68C6
:106840005A69206ADD6910B1407801280FD0AA4248
:106850000BD0D3E9020129B193F820400F2C16D9AF
:1068600051F82210416001325A61F0BC70476E1E2F
:10687000964214D021690029E9D094F90310154CEF
:1068800001F01F064909B04044F82100DFE7072C5A
:1068900095BF895C31F8121001718180E3E794F9AA
:1068A000036006F1C0077409A40051F827C004F181
:1068B000604404F5614406F01F06B0406FF3104CCD
:1068C00041F827C0C4F880012060C0E700600040A4
:1068D000EC12002000E100E070B4EFF30383103B02
:1068E0005BB2304A304C03F1C00152F821006FF323
:1068F000104042F8210054F823008268D2789207B1
:1069000005D54268527A012A01D070BC70475909F6
:1069100020310122254C03F01F0302FA03F344F84F
:106920002130BFF34F8FBFF36F8F436893F902306D
:10693000002B2EDB5909203103F01F0302FA03F369
:1069400044F82130BFF34F8FBFF36F8FD0E90114AC
:10695000237891F902106FF386130029237014DB5A
:1069600001F1C0050F4C4B099B0054F8256003F161
:10697000604303F5614301F01F018A406FF3104645
:1069800044F82560C3F880211A60012170BCFFF72C
:1069900087BC826813786FF386131370012170BC73
:1069A000FFF77EBC00600040EC12002000E100E038
:1069B000F8B5EFF30384103C314B64B253F8246014
:1069C000736893F90230002B42DB5A092032012010
:1069D0002C4903F01F0300FA03F341F82230BFF300
:1069E0004F8FBFF36F8FD6E90112137891F9021020
:1069F0006FF386130029137015DB01F1C007224DD8
:106A00004B099B0055F827C003F1604303F5614330
:106A100001F01F0100FA01F16FF3104C45F827C097
:106A2000C3F880111960D5780023EDB2D3702A071E
:106A300021D4EB0712D405F01405142D16D0C03460
:106A4000114B53F824206FF3104243F82420F8BD73
:106A5000B26813786FF386131370E4E704213046AD
:106A600005F01405FFF71CFC142DE8D13046082171
:106A7000FFF716FCE3E705213046FFF711FCD8E7E6
:106A8000EC12002000E100E00060004070B50D460F
:106A9000016A8B7803F07B038B700378044623B381
:106AA000C0E90352E369186988B122697AB1A37811
:106AB000816800688E68E16803F00303013B22FAF5
:106AC00003F300229BB22261B04768B9216A8B7838
:106AD00043F080038B70207878B9A37803F0030328
:106AE000022B0CD02B78CB7070BD837803F003039E
:106AF000D21A2B44C0E90332D4E7002070BD2B88A2
:106B000043F47E43CB8170BD036A9A7870B4D2B2ED
:106B1000054602F00B004E780C7898700020E86073
:106B20008D785D701D7866F301051D70C9789974C4
:106B3000DD7904F05C0105F0A304214302F07B023F
:106B4000D97170BC9A707047F0B5846A85B00646FA
:106B50008C461746BCB194E80F006D4685E80F00DF
:106B6000F269F36A12782260E360C4F808C0277102
:106B70002046736A9847B46A1CB195E80F0084E810
:106B80000F0005B0F0BD6D462C46E9E770B5D0E9C1
:106B9000072592F905202F4904465009012320308A
:106BA00002F01F02002603FA02F26660AE7041F89E
:106BB0002020BFF34F8FBFF36F8FE26992F90B2054
:106BC0005009203002F01F0203FA02F241F820209F
:106BD000BFF34F8FBFF36F8FE26992F9072050091F
:106BE000203002F01F0203FA02F241F82020BFF326
:106BF0004F8FBFF36F8FE26992F90920500920305F
:106C000002F01F02934041F82030BFF34F8FBFF3D3
:106C10006F8FE369DA6822B1936810681B6A98473E
:106C2000E3691B691BB19A681868136A9847EFF308
:106C30001082012383F31088E069074900784C68CB
:106C4000C0F11F00834023434B604B6882F31088E0
:106C5000002070BD00E100E0FC6F04402DE9F84326
:106C60000D4609780323CB4013F0010301F10072B4
:106C700018BF1023037002F560528378520101217E
:106C8000026204466A78C56161F30103D5E9051023
:106C900061620021A370C4E90A1022B9DBB20222AA
:106CA00062F30103A37095F90B60674BA87A720930
:106CB000203206F01F07012101FA07F743F822707E
:106CC000BFF34F8FBFF36F8F604A614F06F1C00C67
:106CD00003EB060852F82CE000016FF3104E42F867
:106CE0002CE0C0B288F8000395F9050047F826406B
:106CF0004FEA501C0CF1200C00F01F0E01FA0EFEA2
:106D00002E7943F82CE0BFF34F8FBFF36F8F00F164
:106D1000C00C03EB000852F82CE036016FF3104E64
:106D200042F82CE0F6B288F8006395F9076047F85E
:106D300020404FEA561C0CF1200C06F01F0E01FA01
:106D40000EFEA87943F82CE0BFF34F8FBFF36F8F8F
:106D500006F1C00C03EB060852F82CE000016FF3BB
:106D6000104E42F82CE0C0B288F8000395F90900F3
:106D700047F826404FEA501C00F01F060CF1200C8B
:106D8000B1402E7A43F82C10BFF34F8FBFF36F8FB3
:106D900000F1C00C310152F82C600344C9B26FF30A
:106DA000104642F82C6083F8001347F82040EB6847
:106DB000F3B15968266A0A68E7694FF4002C701D20
:106DC000C2E900C094F800C0BCF1000F01D0113638
:106DD00056607E7836B9D67801270B3067F30516F2
:106DE0005060D6709A68186813689847064640BB8A
:106DF0002B69002B2ED05968266A0A68E7694FF084
:106E0000006CF01CC2F800C0906094F800C0BCF1A7
:106E1000000F01D00F3696607E7836B9D6780127FC
:106E20000B3067F305169060D6709A68186813687F
:106E30009847064670B1EB681BB19A681868136AE8
:106E400098473046BDE8F88300E100E0006000406C
:106E5000EC120020EFF31082012383F310889B498A
:106E60002E784868C6F11F06B34020EA03034B6042
:106E70004B6882F31088236A00229A701A715A7242
:106E80009A72DA725A83297840F20722CA40D207EE
:106E900044BF4022DA7406221A772278E16972B17F
:106EA000C868013A002800F008810120120392B25C
:106EB000024342F006009882988A8242FCD1EE7822
:106EC0006A78A878F600032A46EA001600F0E28005
:106ED000002A0CBF4FF0E20E4FF0F20EED696A7817
:106EE00095F802C02F7B2878F6B2D2014FEA4C1CED
:106EF0001E700CF0200C7F00D2B2861E07F0020735
:106F000042EA0C02012E4FF0000C83F806E05F739A
:106F100083F808C040F2C8806E68D2B2DA71B278E5
:106F20005A701F7896F801C032786CF301071F7011
:106F3000F6789E74DE7902F05C0206F0A306324316
:106F4000DA7191F905C0624E0027C4E90377C4E9FC
:106F500005770CF1C00200F0030056F822E067F359
:106F6000104E46F822E04FEA5C12920091F90B8035
:106F700002F1604202F561420CF01F0E4FF0010C6D
:106F800008F1C0090CFA0EFEC2F880E1C2F800E078
:106F900056F8292067F3104246F829204FEA581284
:106FA000920091F907E002F1604202F5614208F0B7
:106FB0001F080EF1C0090CFA08F8C2F88081C2F867
:106FC000008056F8292067F3104246F829204FEA3E
:106FD0005E12920091F9091002F1604202F56142DD
:106FE0000EF01F0E01F1C0080CFA0EFEC2F880E18F
:106FF000C2F800E056F828E067F3104E46F828E0A3
:107000004A0992006D8902F1604202F5614201F085
:107010001F014FF6FF760CFA01F140F07000B54207
:10702000C2F880111160987025812DD0EFF3108186
:107030008CF31088274A13681BB927484025C37072
:10704000C57013680133136081F3108821892348C8
:107050000B0A1B0153FA81F150F8213023F0011380
:1070600023F4404343F0040340F82130EFF3108150
:10707000012383F31088136813B11368013B136075
:10708000136863B181F31088154B636000263046A6
:10709000BDE8F88346F040064FF0F20E1EE70E4AB8
:1070A0008020D370D070EDE7022808BF42F01002B4
:1070B000FF26D2B25E70DA7143E7C869007A1040E9
:1070C000000200F4706040F00100EFE6FC6F044045
:1070D00000600040E8120020000D04400008044059
:1070E000554943532DE9F04F9B46FF258024634BC0
:1070F0008BF802508BF80340614C1B6A2668614C88
:107100009BF80050C3F302678BB0BE40C3F3023359
:1071100026FA03F300910992A3FB0412CDE90212AF
:1071200000266FF3820506931B0ACDE907068BF84C
:107130000050204605930196099B834276DA9DF81C
:10714000203004930027504B049ADD5DC5F34009BD
:10715000C5F3800549EA050393425FD14B4B33F8F1
:107160001780079B03FB08F8069BB3FBF8F4661E29
:10717000FF2E53D804FB08F4824621E0059AB4FBA5
:10718000F2F27F2A02FB03F354D9002BB8BFFF337E
:107190001B12A3F5C333A03B002BB8BF5B429A453B
:1071A0004ADC9BF800309DF804208BF8032043F064
:1071B0000403A4EB08048BF80030002E3AD0013E03
:1071C0002246E317DDE9020108F096FEA0F5C33080
:1071D000A038009A00F5C333A033002ACED100288E
:1071E000B8BF4042824525DD274B9BF80110DA5D90
:1071F0009BF800308BF80260C2F3000464F386133E
:1072000069F3041365F3C303C2F3C10262F301011E
:107210008BF80030009B8BF80110019301370D2F84
:1072200091D1089B1BB3099B984223DC00200BB033
:10723000BDE8F08F5046F1E713498BF80260C85D56
:107240009BF800100192C0F3000C6CF386119BF8C0
:1072500001C069F30411C0F3C10065F3C30160F319
:10726000010C9A468BF800108BF801C099E70123B6
:10727000089361E703200BB0BDE8F08F00E0014008
:1072800074130020A0860100503301006033010018
:10729000F0B4EFF30383103B5BB203F1C001324A59
:1072A000324C52F821006FF3104042F8210054F89C
:1072B0002300C2690369126992B10BB1F0BC704737
:1072C000026A9378446A03F07F0343F004030021C9
:1072D0009370C160002CF1D08022F0BCFFF734BC69
:1072E000026A002BEDD00678E6B1D48AC4F30424F8
:1072F000B4422DD28578C16805F0030C654609E0DB
:107300000F78D77301345B1B2944B442C0E90313DF
:107310001ED223B3BCF1020FF2D10F8847F47E478F
:10732000D781EFE78178C46801F00305022D0AD008
:107330002578D57001F003029B1A2244C0E903238B
:10734000002BBBD1BCE7258845F47E45D581F1E70C
:1073500011796FF3C7111171002BAFD1B0E711791B
:1073600063F3C7111171ACE700600040EC1200201C
:1073700030B583B0EFF30383103B5BB203F1C00180
:10738000554A564C52F821006FF3104042F8210044
:1073900054F82340E369DB6873B1A36963B1636A9E
:1073A0000021C4E90511002B70D02046012203B052
:1073B000BDE83040FFF7C8BB22894FF6FF739A4201
:1073C00020D0EFF31081012383F31088444B1A6817
:1073D0001AB944484025C270C5701A6801321A6053
:1073E00081F3108822894049130A1B0153FA82F263
:1073F00051F8223023F0011323F4404343F00503F6
:1074000041F822302278236A002A41D0D98AC8065E
:1074100013D01B8AC3F308030193A369002B41D146
:10742000636A2BB1042201992046FFF78DFB227875
:107430002AB1236AD98AC906E6D1BE221A712389E4
:107440004FF6FF72934221D01A0A120152FA83F2C8
:10745000254951F8223023F0011323F4404343F02F
:10746000040341F82230EFF31082012383F31088E4
:107470001B4B196811B11968013919601B681BB9D8
:1074800018498020CB70C87082F3108803B030BDDB
:10749000A17801F003010229BBD05B790193A369B4
:1074A000002BBDD0A278606902F0030201A908F0A8
:1074B0000BFFD4E90521A37803F003031A44C91A8A
:1074C000C4E9052129B9636A1BB101222046FFF7EF
:1074D0003BFB2278ACE700BF00600040EC120020CC
:1074E000E8120020000D04400008044010B5EFF33E
:1074F0000384103C0B4B64B253F82400D0E90821FC
:10750000937803F07B03937019B102220021FFF7F7
:107510001BFBC034044B53F824206FF3104243F894
:10752000242010BDEC1200200060004070B5EFF385
:107530000384103C164B64B253F824000278036AAB
:107540003AB9827802F00302022A02D05979C9B20C
:1075500002E0198AC1F308011D79EDB2EE0605F0CB
:10756000380204D51D7FED0758BF42F040021D7957
:10757000466A05F0C7051D710EB1FFF7E5FAC03484
:10758000044B53F824206FF3104243F8242070BDBD
:10759000EC1200200060004070B5D0E9012592F99E
:1075A00002202F49044650090123203002F01F0217
:1075B00003FA02F20026AE7041F82020BFF34F8F8D
:1075C000BFF36F8F626892F901205009203002F0FA
:1075D0001F0203FA02F241F82020BFF34F8FBFF3DE
:1075E0006F8F626892F904205009203002F01F0268
:1075F00003FA02F241F82020BFF34F8FBFF36F8FE1
:10760000626892F903205009203002F01F0203FA49
:1076100002F241F82020BFF34F8FBFF36F8FEFF3DB
:10762000108283F3108860680E4900784D68C0F1BD
:107630001F0083402B434B604B6882F310886368C4
:107640005A6922B1936810681B6A984763681B697E
:107650001BB19A681868136A98470020206070BDB3
:1076600000E100E0FC6F044070B5436A84B004465A
:107670000E46ABB193E8070001AD85E807006168ED
:10768000A26A097819601E719A601846236A9847A1
:10769000636A1BB195E8070083E8070004B070BD7A
:1076A00001AD2B46EBE700BF2DE9F04F0B780C4600
:1076B000D1E90521054603F10073446003F56053E9
:1076C000E06929625B01002183B0AB60C5E9091064
:1076D000002A00F02581D2E901100E6807681068C1
:1076E000053373604FF400233360B8470646A8B9EA
:1076F0002269BAB1AB68D2E901100E680768106858
:107700000333B3604FF000633360B847064648B1B7
:1077100063691BB19A681868136A9847304603B0CA
:10772000BDE8F08F6B68D3F820805A7A98F802E0B1
:1077300098F801604FFA8EF10029AABF4FF0FF0EB2
:107740004FF0040B4FF0000B012A9A7AD97A18BF38
:107750004FF0000906F0030612BFCC464FF00209B5
:107760004FF0050C012A46F0800600F0D380012975
:1077700014BF4CF0800C4CF0C00C5A7B002A0CBF9C
:10778000EA22E2220192EFF31082012181F31088B4
:1077900066481B784768C3F11F0301FA03F327EA21
:1077A00003034360436882F31088AB6894F90120B7
:1077B0005F4F0020987093F804A06FF07B0A83F865
:1077C00004A0F6B24FF4784AA3F814A01E709DF8F6
:1077D000046083F802909E7198F800605E705FFA12
:1077E0008CFC4FF04008022683F812E083F807B0C3
:1077F00083F80DC0187258729872D872588383F843
:1078000013801E776379DFF830E14A4EDFF82CC130
:1078100007EB02081B01DBB288F800334EF8225058
:1078200002F1C008530956F828909B0003F1604309
:1078300060F3104903F5614302F01F0246F82890F7
:1078400001FA02F2C3F880211A60A27994F9023099
:10785000120107EB0308D2B288F8002303F1C00835
:107860005A094EF82350920056F8289002F16042CF
:1078700060F3104902F5614203F01F0346F82890B7
:1078800001FA03F3C2F880311360E27994F903300E
:10789000120107EB0308D2B288F800234EF82350F8
:1078A00003F1C0085A0956F82890920002F160428C
:1078B00060F3104902F5614203F01F0346F8289077
:1078C00001FA03F3C2F880311360237A94F904209B
:1078D0001B011744DBB287F8003302F1C0044EF8F5
:1078E0002250530956F824709B0060F3104703F1AF
:1078F000604346F8247003F5614302F01F02064618
:1079000091403046C3F880111960C5F800C003B03B
:10791000BDE8F08F00297FF430AF4CF0400C2CE72D
:107920002269002A7FF4E7AE2346FCE6FC6F0440A0
:1079300000E100E000600040EC1200205349435396
:10794000F8B54668C1600446306922611D460023CF
:107950001746E561C4E9053390B1436865611B686A
:10796000AAB2DA81DA7819B35960022161F383028D
:10797000DA7082680068526819469047B8B966683C
:10798000716951B14FB18868A561ABB23A4685685B
:1079900008680021A84750B966682069336968B152
:1079A00093B1A268937843F0F00393700020F8BD80
:1079B000284E5E6061F38302DA70DAE7A26893789A
:1079C00043F0A0039370F8BD7269A168002A88781B
:1079D00014BFF022702242EA00028A70E6D196F9C2
:1079E00001301D485A092032012103F01F0301FA1A
:1079F00003F340F82230BFF34F8FBFF36F8F6369FB
:107A0000E069834206D2D4E90212FAB1D25CCA70AC
:107A10000133636163685A7A012A0AD093F901300D
:107A20000D4903F01F0001225B09824041F8232029
:107A3000BCE70128F2D962699042EFD9D4E902018A
:107A400031B1895CC17001326261E7E7CA70DFE77A
:107A5000C170F8E7C804002000E100E010B48468B9
:107A6000A47814F0300F03D15DF8044BFFF768BF22
:107A700008205DF8044B70471F4B2DE9F0481F4C60
:107A80001B6A2768C3F30264A740C3F302330E46A0
:107A9000DF400025691C4B0000FA03F3DC19013CB0
:107AA00094FBF3F4013CFF2C03DD042901D00D46C7
:107AB000F0E7C2B197FBF3F4013C84F30804601CC7
:107AC00080FB03BC4FEA0C213A46002341EA1B61CC
:107AD0004FEA0B2008F010FAB0F5807F71F1000337
:107AE000B4BFC2B200227378347065F30103B27080
:107AF00073700020BDE8F08800E00140741300209E
:107B000010B4EFF30383103B5BB203F1C001144ADE
:107B1000144C52F821006FF3104042F8210054F841
:107B200023305A69D9698A4206D2D3E90240A8B102
:107B3000805CE07001325A61914202D05DF8044BE2
:107B400070471A69002AF9D19A685DF8044B937856
:107B500003F07B0343F0040393707047E070E9E7A0
:107B600000600040EC12002010B4EFF30383103BE0
:107B70005BB203F1C001174A174C52F821006FF3B2
:107B8000104042F8210054F823305A69D9698A42DA
:107B900006D2D3E90240D0B1805CE07001325A6174
:107BA0009A698A4207D2986819694079541C9C6185
:107BB0008854D3E90621914206D19A68937803F05C
:107BC0003B0343F0040393705DF8044B7047E0708F
:107BD000E4E700BF00600040EC12002010B5EFF3B6
:107BE0000384103C64B20A4B53F8240082689378F3
:107BF00003F0030393700121FFF736FDC034054BFA
:107C000053F824206FF3104243F8242010BD00BF26
:107C1000EC1200200060004010B5EFF30384103C2C
:107C200064B20B4B53F8240083689A7802F0030285
:107C30009A70842219791A710421FFF715FDC03456
:107C4000044B53F824206FF3104243F8242010BD56
:107C5000EC1200200060004003685B69A3B190F85B
:107C60002D2070B502F0FF056AB904469A681868BD
:107C70009668238CA1692A46B047E26925620123F0
:107C8000626284F8333070BD704700BFF0B5856B19
:107C900083B004460F4635B395E803006E4686E888
:107CA00003002368E16B5A6929602F713AB194F897
:107CB0002D1021B9936810681B69984723689B6948
:107CC00033B194F82D201AB19A681868136998474F
:107CD000636B28469847A36B1BB196E8030083E8C3
:107CE000030003B0F0BD6E463546DAE7EFF30383D9
:107CF000103B5BB2C033044A52F823106FF31041BB
:107D000042F82310704700BF00600040F8B5EFF361
:107D10000383103B5BB2C033624A52F823106FF307
:107D2000104142F82310EFF30383103B5BB25E4A2D
:107D300052F8234021690B7B13F001032CD194F8F6
:107D40002C2094F82A00904216D094F82D300BB1D4
:107D5000022A43D02046FFF77FFF236994F82820AA
:107D6000DA7094F82B2094F82C30013A013384F81F
:107D70002B2084F82C30F8BD94F8332002F0FF0556
:107D80004ABB236ABBBB94F82E3053B35222012363
:107D9000CA7284F83030F8BD94F82D309BB194F855
:107DA000313083B9636AA2694979D154D4E908238F
:107DB00094F82E10013A0133C4E90823A1B92369CC
:107DC0005422DA72F8BD002001225423206284F884
:107DD0002F20CB72F8BD84F83330F8BD5223CB721C
:107DE000F8BD5423CB72F8BD226952210123D17210
:107DF00084F83030F8BD94F82D20002A32D094F861
:107E00003120002A37D0226884F831505069002888
:107E100041D09269002A3ED0E669022E3BD9936890
:107E200010689F68A269B31EF4268E709BB2294623
:107E3000B8472268E3695269916810688E68023B0E
:107E40009BB22A462946B047E3692169023B0220DA
:107E5000C4E90803012284F833200023FF228B7237
:107E6000CA70F8BD626AA569501C013BAA5CC4E9EE
:107E70000830CA70F5E7636AA2694979D154D4E938
:107E80000832013B0132012B2169C4E9083204D0D8
:107E9000FF22CA70E5E7012BDFD82023FF228B7277
:107EA000CA70DEE700600040EC12002038B5EFF346
:107EB0000383103B5BB2374A52F823402269D37ADE
:107EC0006FF3C303D37294F82F30002B39D103F032
:107ED000FF0094F82A1094F82C30994220D1236A9C
:107EE0008BB994F82D1094F8300000290CBF0321B1
:107EF0000221C8BBF023D372937803F0CF039370B1
:107F00002046FFF7C3FEEFF30383103B5BB2C033A1
:107F1000214A52F823106FF3104142F8231038BD64
:107F2000B3B9012924D094F829000021D172D0706E
:107F300094F82B200133013A84F82C3084F82B205C
:107F4000E1E7F0232046D3720121FFF79FFEDAE735
:107F500094F82D5005F0FF0145B1022BE5D194F8BE
:107F6000290040F00100E0E7D372C9E70846DCE7EA
:107F70002046FFF771FE94F82A30012B05D194F8C2
:107F80002800226994F82C30CFE7226994F82C302D
:107F9000C9E700BFEC12002000600040F0B583B0DC
:107FA000EFF30384103C64B2144B53F82450EF6891
:107FB000BFB16A682B6992F90D20121B18BF01220C
:107FC000CBB193E803006E4686E803006969596007
:107FD0001A701846B8472B691BB196E8030083E86E
:107FE0000300C034064B53F824206FF3104243F8CB
:107FF000242003B0F0BD6E463346E7E7EC120020C4
:1080000000600040EFF30383103B5BB20649074A70
:1080100051F823100120C033087252F823106FF377
:10802000104142F823107047EC120020006000401D
:108030000B0A1B0153FA81F1034B53F82130C3F3B0
:10804000400313700020704700080440C8B20123A9
:10805000834098B252B10023090A490101F18041DD
:1080600001F5802103438B60002070471B041046FC
:10807000F2E700BFF8B500283BD009681E4F4FF06B
:10808000000C01EBC00066464FF0010E8D8840F2F7
:10809000024295424FF000030BD10C680EFA03F236
:1080A00004F0B854D2B2B4F1807F0CBF164342EA58
:1080B0000C0C0133032B06D037F813209542ECD07B
:1080C0000133032BF8D108318142DFD16FEA0C0C68
:1080D0005FFA8CF4012001F05DFE084B93F8BB249D
:1080E0001643264083F8BB640120BDE8F84001F048
:1080F00021BE0646FF24EDE77C33010000E001408D
:10810000F0B585B004AB02A843F80C0D01260C466F
:10811000304619461546ADF80C400292ADF80060A5
:10812000FFF7A8FFEFF3108186F310881B4B1A6846
:108130001AB91B484026C270C6701A6801321A600C
:1081400081F31088200AEA03E4B24FEA00100BD54D
:108150000119144A52F8217025F480366FF3104744
:1081600042F8217042F8216020440E4A42F8205023
:10817000EFF31082012181F31088196811B1196899
:10818000013919601B681BB905498020CB70C87084
:1081900082F31088002005B0F0BD00BFE812002077
:1081A000000D044000080440F0B5C36A85B00546E0
:1081B0000E4617469BB193E8070001AC84E8070020
:1081C0002A6B1A605F601E721846AB6A9847EB6AAA
:1081D0001BB194E8070083E8070005B0F0BD01ACCF
:1081E0002346EDE770B50123856880F8203002262C
:1081F000B323EB7180F821606B79C26904466FF399
:1082000000036B710D46FFF7CFFFA368DE705A794C
:1082100042F001025A7194F82120012A05D094F805
:1082200021200AB9052D04D070BD042D01D0082DE0
:10823000F5D194F82320002AF6D194F821201AB918
:108240005A7A02F0F3025A72BF210122D97184F8DE
:10825000232070BD836810B4A0220024DA7180F856
:10826000204080F822405A7964F300025A7190F855
:1082700024206AB9DF249F221C701A700024022374
:10828000C26980F82130C4615DF8044BFFF78CBFF0
:108290005C72F3E730B583B0EFF30383103B5BB25E
:1082A000C033424A52F823106FF3104142F82310B2
:1082B000EFF30383103B5BB23D4A52F8234094F83E
:1082C0002220A368AAB9012284F82220DA7CD2B243
:1082D0008DF805209DF8052012F0010F5A7A14BF81
:1082E00002F0F70202F0F3025A72AC22DA7103B024
:1082F00030BD94F820204AB91B7A13F0080F0CBF48
:10830000042108212046FFF76DFFA368226962B1AE
:10831000A1698A421DD0E268DB7C481CA0615354ED
:10832000E3690133E36103B030BDD97CC9B28DF894
:1083300006109DF80610197941F01001197119798C
:1083400041F008011971197962F30411197103B030
:1083500030BD022584F821505979E2696FF300019C
:10836000597120460621FFF71FFFA3682169DD70C0
:108370005A7942F001025A7191B9DA7CD2B28DF881
:1083800007209DF807201A7942F010021A711A7915
:1083900042F008021A711A7961F304121A71A6E701
:1083A000A269E168DB7C501CB8E700BF00600040B8
:1083B000EC12002038B5EFF30383103B5BB2C033FF
:1083C000224A52F823106FF3104142F82310EFF3C2
:1083D0000383103B5BB21E4A52F8234094F82030CE
:1083E00093B194F8213003F0FF0263B9A3692069C7
:1083F000A16898420DD0E269E0680132C05C8874DF
:108400000133C4E9063238BD05212046FFF7EAFEF4
:10841000E7E723680D4893F90E3003F1C004002B01
:1084200050F8245062F3104540F8245009DB5A09F3
:10843000603203F01F030120064C00FA03F344F8F6
:108440002230CB7943F04003CB7138BD006000404F
:10845000EC12002000E100E038B5EFF30383103B9D
:108460005BB2204A52F82340A1680B79C3F3800322
:10847000BBB1CB796FF38613CB71C02301E0013B15
:1084800002D0CA795206FAD4EFF30383103B5BB2F1
:10849000C033154A52F823106FF3104142F82310ED
:1084A00038BD022584F821504879E26963F3000061
:1084B000487107212046FFF777FEA168CD704B7900
:1084C00043F001034B7194F82130002BD1D1A36903
:1084D000E269E0680132C05C88740133C4E90632A5
:1084E000C7E700BFEC1200200060004000B583B079
:1084F000EFF30383103B5BB2214A52F823008268FA
:10850000537ADBB299072FD113F00C0F1FD0012340
:1085100080F8243090F82130012B2ED00269836935
:108520009A4228D9C369013BC3610321FFF792FE38
:10853000EFF30383103B5BB2C033124A52F82310AF
:108540006FF3104142F8231003B05DF804FBDB0623
:10855000EED5D37CDBB28DF807309DF80730D379A8
:1085600003F0EF03D371E3E7002380F82430012107
:10857000FFF770FEDCE70321D8E70221D6E700BF52
:10858000EC1200200060004030B5836B83B00446DD
:108590000A46ABB193E803006D4685E80300E16B42
:1085A00019601A711846636B9847A36B1BB195E865
:1085B000030083E80300002384F82B3003B030BDB0
:1085C0006D462B46EBE700BF2DE9F04FD0F8008059
:1085D0000469D8F82450D8F804A095F800E095F87C
:1085E00001B0DFF868C1DFF86891DFF868811F2605
:1085F00026705F27DF26277026702F799DF9286067
:1086000047F0E0072774EF7847F0E0076774AF782A
:108610009DF92450BEF1010F4FEA07170CBF4FF030
:10862000050E4FF0040E07F070074EEA4B0E47F0B0
:108630000807A7700CEB060BCA450CBF4FF0F709F3
:108640004FF077095FFA8EFE4FF0000AB327090159
:1086500084F803E0C9B284F8059006F1C00E84F8EE
:1086600006A0E771384F8BF8001348F8260057F83A
:108670002EB04FEA56194FEA89096AF3104B09F1F7
:10868000604947F82EB009F561494FF0010E06F038
:108690001F060CEB030B0EFA06F6C9F88061C9F849
:1086A000006003F1C0098BF800135E0948F823004D
:1086B00057F829B0B60006F1604606F5614603F0AA
:1086C0001F036AF3104B0EFA03F347F829B00CEBC3
:1086D0000509C6F88031336005F1C00389F800133D
:1086E0006E0948F8250057F82390B60006F1604659
:1086F000944406F561466AF3104905F01F0547F8F2
:1087000023900EFA05F502F1C009C6F880513560D4
:108710008CF8001348F8220057F8291053099B00E1
:1087200003F160436AF3104147F8291003F56143F0
:1087300002F01F020EFA02F29F20C3F880211A6095
:108740002070BDE8F08F00BF0060004000E100E055
:1087500040420F00EC120020C369026913B990F87F
:108760002C308BB130B5044683B0A1B994F82630D3
:10877000A16984F828300023E36184F82C30B32306
:108780002162D37103B030BD90F82B30002BE9D1BA
:10879000B323D371704700680023D37190F911504F
:1087A00090F90E20417B90F90F30019590F910005F
:1087B00000902046FFF708FF2269D7E710B483B086
:1087C000EFF30383103B5BB2C033474A52F82310E8
:1087D0006FF3104142F82310EFF30383103B434A39
:1087E0005BB252F8233093F82D10DA69B1B9986969
:1087F0001969012803D9087940F040000871012A5D
:1088000027D0CA7CD2B28DF8072001229DF807102C
:1088100083F82D2003B05DF8044B7047002AF9D08F
:10882000032A1FD0022A23D0012A2BD019691A6AE1
:108830005869C97C8154D3E907210131013AC3E960
:108840000721002AE6D119690B7962F386130B71AF
:10885000E0E70A7942F010020A710A7942F0080250
:108860000A71CEE719690A7942F040020A71DEE71F
:1088700019690A7942F010020A710A7942F0080275
:108880000A71D4E793F82A1029B31968184C91F9A2
:108890000F104809203001F01F0102FA01F144F8DD
:1088A0002010BFF34F8FBFF36F8F1969C87940F065
:1088B0008000C871087940F010000871087904241C
:1088C0006FF3C30008714C7048796FF30000487172
:1088D00083F82C20ABE719694A7A082002F0F702E6
:1088E0004A724870A3E700BF00600040EC1200200D
:1088F00000E100E010B4EFF30383103B5BB2C03340
:10890000344A52F823106FF3104142F82310EFF36A
:108910000383103B304A5BB252F8233093F8272090
:1089200092B193F8260093F8281003283DD01869D7
:1089300093F8244084740131013A83F8281083F8B5
:1089400027205DF8044B704793F82920002AF8D1BE
:10895000DA69186982BBC2796FF3C712C271C0228B
:1089600001E0013A02D0C179C909FAD11B68194A5C
:1089700093F9103003F1C001002B52F821406FF33E
:10898000104442F8214009DB5A09603203F01F030A
:108990000121124C01FA03F344F82230C3795DF847
:1089A000044B43F04003C37170470229BFD193F8D1
:1089B00030000028C5D0BAE7196A5C69013A645CE6
:1089C00084740131C3E90721002AC4D05DF8044B47
:1089D000704700BF00600040EC12002000E100E0A2
:1089E00030B4EFF30383103B2A4A5BB252F82330D2
:1089F00093F829201AB193F82720012A45D0DA6983
:108A0000CAB11969CB796FF38613CB71C02301E02A
:108A1000013B02D0CA795206FAD4EFF30383103B2C
:108A20005BB2C0331C4A52F823106FF3104142F876
:108A3000231030BC704793F82A10F1B11968174D14
:108A400091F90F1048092030012401F01F0104FAA8
:108A500001F145F82010BFF34F8FBFF36F8F1969F5
:108A6000C879042540F08000C8714D70487962F3E0
:108A70000000487183F82C40C4E719694B7A08223A
:108A800003F0F7034B724A70BCE793F83020002ADA
:108A9000B5D1B6E7EC1200200060004000E100E034
:108AA00038B5EFF30383103B5BB2344A52F82340EE
:108AB0002269537ADBB2E021DD06517203F0030133
:108AC0001AD55078400637D401252946204684F827
:108AD0002B50FFF741FE29462046FFF755FDEFF3E7
:108AE0000383103B5BB2C033254A52F823106FF367
:108AF000104142F8231038BD0029E5D119070FD5E0
:108B000094F82B30002B33D194F82910B32300298B
:108B100014BF02210321D3712046FFF735FDDEE7A4
:108B200094F82C100029DAD05B07D8D594F82B30B4
:108B30000121002BF0D1E7E70029C5D151784D067E
:108B4000C1F38010DAD5236884F82B00596A537A70
:108B50000978012903F0F7030CBF03210221082043
:108B600053725070D170537943F001035371B6E7DB
:108B700000212046FFF7F0FD0121CDE7EC12002097
:108B80000060004070B582B0EFF30384103C164BD8
:108B9000164964B253F82420567995688B5D03F02A
:108BA0000303032B0FD0C03451F824306FF310436C
:108BB00041F824302DB102A8D36840F8083D019651
:108BC000A84702B070BD2DB102A8D36840F8083D97
:108BD0000196A847C034054B53F824206FF3104288
:108BE00043F8242002B070BDEC1200200060004069
:108BF0000346D3E902230020536070470346D3E9BC
:108C00000123D269F0B4D2E90347D2E901155669CC
:108C100045F0004544F0004441F000425D61002011
:108C20009C611A615F629E62F0BC7047002824DB81
:108C300030B400F1604303F56143104D104C09015D
:108C4000C9B283F8001345F8202000F1C0014309A0
:108C500054F821509B006FF3104503F1604344F832
:108C6000215003F5614300F01F00012202FA00F0D9
:108C7000C3F8800130BC186070477047EC120020C8
:108C800000600040F0B5836985B005460F46164682
:108C90009BB193E8070001AC84E80700EA691A6019
:108CA0001F719E6018466B699847AB691BB194E8C9
:108CB000070083E8070005B0F0BD01AC2346EDE7EF
:108CC000430910B4203300F01F0408490122A240D8
:108CD00041F82320BFF34F8FBFF36F8F044B5DF834
:108CE000044B002243F82020704700BF00E100E061
:108CF000EC12002038B54368044693F91200DD6990
:108D0000002801DBFFF7DCFF95F92400002801DBD8
:108D1000FFF7D6FF95F92500002801DBFFF7D0FF0C
:108D2000AB6A2BB193F90100002801DBFFF7C8FF04
:108D3000D4E902210023236018469160536338BDB3
:108D400030B40478486E032C98BF013042B182429F
:108D500006D2032C98BF02F1FF321A6030BC704774
:108D6000029D496BED0754BF01F01F01C1F304419F
:108D7000032C09D9090981F0010172B901B180B947
:108D800002225A6030BC704701F00C01A1F10401CD
:108D9000B1FA81F14909002AF0D0824201D30029B9
:108DA000EED103225A6030BC704700BF2DE9F04776
:108DB0000B7C41600D46012101FA03F2C26092076B
:108DC00016BF00220174027403F58003D5E9051271
:108DD00003F5F0631B02002784B004468360416101
:108DE000C0E90672EE69EFF31083012282F3108866
:108DF000874A287CD16801288CBF6FF040006FF053
:108E000020000140D160D26883F310882A78287A44
:108E10006B68A1684FF4254C032AC1F800C04FEAE3
:108E2000C050CF6203F1FF3ECF638F6400F0D88063
:108E300084BF40EA02409E464FF0004CC862D6F81C
:108E40001880F069C1F810C00027C1F814C0C1F83B
:108E500018C04FF0FF3C4F6203978F62CDF808C0F7
:108E6000C1F81C800862D6F82C80C1F868E0C1F80F
:108E700064E0002A40F084805B0863440293C646A5
:108E800001204FF0030C4B658B65BEF1000F15D12F
:108E9000337883B1777848F48078022A48EA8713D8
:108EA0004FEA071800F0A18040F2A180032748EAAA
:108EB000030848EA0708B378002B7CD1B76A002F73
:108EC00000F08A80BB7897F803A097F804901B06FF
:108ED00043EA0A73D7F808A043EA09438B63C1F851
:108EE0008CA0BAF1000F61D00123BEF1000F09D1AF
:108EF00097F81C9097F81BA04FEA496949EA4A295C
:108F000048EA0908C1F88830BEF1000F08D196F888
:108F1000213096F820E05B0743EA4E3348EA030825
:108F20004FF4AA03012A0B6402D10023CB640B6522
:108F3000E368CB60C1F83480C1F830C00863697C55
:108F400095F912002246FFF771FE224696F822108C
:108F500096F92400FFF76AFE224696F8231096F948
:108F60002500FFF763FE2FB12246397897F90100FB
:108F7000FFF75CFE274B2360002004B0BDE8F087BC
:108F8000012A3ED9EA686068009702ABFFF7D8FE75
:108F9000039FA168029BD6F82CE02A78380440EAA7
:108FA000076040F0030C40F001006CE7FB68003301
:108FB00018BF012399E7F7783B0143EA8713022A98
:108FC00043F480730FD017D903273B43B76A48EAAD
:108FD0000348002F7FF476AF8F63C1F8887093E762
:108FE00040F4803028E70927EFE709275FE7002FE3
:108FF00014BF092706275AE7002F14BF09270627A1
:10900000E3E7012063460246C6464FF0030C3AE709
:10901000FC6F044054504700F0B4EFF30383103B5F
:109020005BB203F1C001164A164C52F821006FF3EF
:10903000104042F8210054F8230044682478012CA1
:1090400015D1D0E90265B5600025B564F5643565D4
:1090500052F821600C4F65F310465D09603503F04E
:109060001F0304FA03F342F8216047F825304369EF
:1090700023B100221146F0BCFFF704BEF0BC7047DC
:1090800000600040EC12002000E100E01C4B30B416
:10909000C3600B7803F001034370EFF310830125E5
:1090A00085F31088174AD46824F48014D460D268F9
:1090B00083F31088EFF3108485F310884378CBB1E5
:1090C000C26813796FF3C713137184F310884A6869
:1090D0004B78D278C4680C4DD201D2B2DB016271F8
:1090E000DBB20122A371E2710B78037045600020AE
:1090F00030BC7047C5682A7963F386122A71E4E7A9
:1091000000E00540FC6F044000434144C3684278DE
:10911000002023F812107047EFF31082012383F32D
:1091200010884378C1683BB10B7943F080030B7121
:1091300082F31088002070470B7943F040030B71D5
:1091400082F3108800207047EFF31081012383F32E
:109150001088437843B1C26813796FF3C713137152
:1091600081F3108800207047C068027963F386128B
:10917000027181F310880020704700BF10B40346CD
:10918000EFF31084012282F3108842787AB1C2682A
:1091900011796FF3C7111171117A6FF3C711117241
:1091A00084F31088002058605DF8044B7047C16854
:1091B000087962F386100871087A62F386100872E3
:1091C000EEE700BF2DE9F0430F688BB0884681467B
:1091D00014461FB33D460FCD6E460FC60FCD0FC6CA
:1091E00095E8030086E803000FCC3E460FC60FCC7F
:1091F0000FC694E8030085E803003846C847D8F84E
:10920000004044B16D460FCD0FC40FCD0FC495E89B
:10921000030084E803000BB0BDE8F0831746ECE7D9
:1092200070B58AB0EFF30383103B5BB2C0332E4AB4
:1092300052F823106FF3104142F82310EFF3038329
:10924000103B5BB2294A52F823500021282268467D
:1092500007F05EF86C6894F84D280021D2B2ADF8A2
:10926000042084F84D18B4F84238C3F30013B3B1A6
:1092700042F020020223ADF8042094F8532884F829
:10928000533894F8523803F01F03D2B2E01884F830
:10929000532890F8202861F3820280F820282A6859
:1092A0006E6A1268009205F120016A46E86903932C
:1092B0000496FFF787FFB4F84238DB0611D52B6818
:1092C0001A69127D6AB193F91530002B09DB5A092E
:1092D000403203F01F030121054801FA03F340F86F
:1092E00022300AB070BD00BF00600040EC120020C8
:1092F00000E100E02DE9F0418AB0EFF30383103B79
:109300005BB2C0333F4A52F823106FF3104142F86A
:109310002310EFF30385103DEDB23B4B6EB20022FC
:1093200053F82670D7E900E494F85318DEF81030AB
:1093300084F8532894F852C81B7B0CF01F0C0CF1D6
:109340002002C9B2100184F853182158205843EA6A
:10935000D07303F00103C1F380708DF819008DF80C
:109360001830002B4AD1C1F38A41059104EB021257
:109370009388C3F30303D8B208288DF81A303AD97A
:1093800008208DF81A0008AA002304EB0C1808EB3B
:109390000301013391F8061202F8011B8342F6D350
:1093A000DEF80020009204EB0C03442283F820280E
:1093B0004FF4806100227B6A0792ADF804106A4680
:1093C00007F12001F8690493CDF80CC0FFF7FAFE0D
:1093D000B4F84238DB070BD5002E09DB760940369E
:1093E00005F01F050123094A03FA05F542F8265046
:1093F0000AB0BDE8F0810028C5D1D1E721F0604175
:109400000591B3E700600040EC12002000E100E0AD
:10941000F0B58BB0EFF30383103B5BB2C033224A4D
:1094200052F823106FF3104142F82310EFF3038337
:10943000103B5BB21D4A52F82350D5E90034012697
:10944000196894F853286F6A84F8536894F852386E
:10945000009103F01F03E118D2B284F853280022D0
:1094600081F8202881F820284FF40062ADF804200C
:1094700005F12001E86903936A460497FFF7A2FE0D
:10948000B4F842389B070CD52B6893F91730002BA2
:1094900007DB5A09403203F01F0305499E4041F89B
:1094A00022600BB0F0BD00BF00600040EC12002055
:1094B00000E100E00B7C03F1401303F500631B02A5
:1094C000F0B4044641608360EFF31082012383F31C
:1094D00010883B480E7CC568C6F10306B34025EAF8
:1094E0000303C360C36882F31088A2680023137269
:1094F000137AC3F34003002BFAD1CD690E7AE878D2
:1095000095F800C093722F7900F00700BCF1000FAE
:1095100043D1002E48D14B681773C0B2676800254D
:10952000957350729672E3603F7C264E91F912005B
:1095300046F82730013B9BB2A842138023DB4B7CCB
:10954000DFF88CC0204E00F1604202F561421B0141
:10955000DBB282F8003300F1C00743094CF8204029
:109560009B0056F827C003F1604303F5614300F008
:109570001F00012202FA00F065F3104C46F827C0E4
:10958000C3F880011860D1E90502104B206100206A
:10959000C4E905022360F0BC7047BCF1500F09D04C
:1095A0004CEA0000C0B2B6E786F0020640EA0610B8
:1095B0006646B0E740F05000C0B21E46ABE700BFC1
:1095C000FC6F0440CC040020006000405447410080
:1095D000EC1200208268117A01F00101137AC3F3C2
:1095E00040039942FAD143681978012903D0F12345
:1095F00013720020704710B4C1681C7C05484B1ED4
:109600009BB21380F12340F82410137200205DF800
:10961000044B7047CC040020D0E90223013BF12128
:109620009BB2138000201172704700BF10B4826893
:10963000117A01F00101137AC3F340039942FAD180
:10964000436893F91230F424002113F1210F1472AE
:10965000117315D08B4210DB5A09203201210B4CBB
:1096600003F01F0301FA03F344F82230BFF34F8FD6
:10967000BFF36F8F436893F91230054A42F8230015
:10968000002303605DF8044B1846704700E100E0DA
:10969000EC120020F0B585B0EFF30383103B5BB212
:1096A00003F1C0011B4A1C4C52F821006FF310401B
:1096B00042F8210054F82340D4E901120978137AC2
:1096C0000129DBB204D103F0F003F421117213720B
:1096D0002769BFB16569D5B195E8070001AE86E895
:1096E00007009B0644BF00232B71A3692B6028460B
:1096F000B84763691BB196E8070083E80700A268D2
:10970000137ADBB203F00F03137205B0F0BD01AEA4
:109710003546E6E700600040EC12002003460020DA
:109720001A689B8A1380704703681B88C3F3C03391
:109730000B700020704700BF03681031002033F821
:1097400011301380704700BF2DE9F043D0E900329B
:10975000D1E90064D1F808E0D2F814C026F04057EF
:1097600024F040521FFA82F82EF040551FFA87F974
:109770003443A3F80490120CA3F814801FFA85F95F
:109780004FEA17482D0C14F0405FA3F80890A3F897
:109790000680DA825D8156D1CC68002C00F0908082
:1097A0002289150522D5D4E900E5B4F80A90B4F869
:1097B0000C80A3F89020A3F89C90A3F89E801FFA39
:1097C0008EF9CEF30B48A3F894904FEA1E7EA3F8CF
:1097D00096801FFA85F9C5F30B482D0F83F892E0A8
:1097E000A3F89890A3F89A8083F8935095051AD41B
:1097F0009CF80340098AA3F89020A3F8801064B174
:109800001A88818A92B222F01F02B7FA87F71F32B4
:10981000D21B92B211431A8081822A4BC0E90336CF
:109820000020BDE8F083A57C94F81390B4F80E8076
:10983000B4F810E045EA090483F8A640A3F8A8802C
:10984000A3F8AAE0D4E7204D204A2D6A1268DFF879
:109850008080C5F3026902FA09F2C5F30215EA40F5
:10986000A8FB02529509DFF86C8041F2883202FBB6
:1098700005F2A8FB0252920C0132072A38BF0722D8
:1098800014F080550AD01EF0805F5FFA82F840F233
:10989000011583F8DE8008BF4FF48075A40009D558
:1098A000D2B245F400751EF0005F83F8DF2018BFC8
:1098B00045F00205CC68ADB25D82002C7FF470AF3C
:1098C000224695E74344415200E0014074130020D2
:1098D000D34D621083DE1B4330B400F1604303F5C7
:1098E0006143104D104C0901C9B283F8001345F8CB
:1098F000202000F1C001430954F821509B006FF370
:10990000104503F1604344F8215003F5614300F032
:109910001F00012202FA00F0C3F8800130BC186079
:10992000704700BFEC12002000600040430910B4F3
:10993000203300F01F0408490122A24041F82320EF
:10994000BFF34F8FBFF36F8F044B5DF8044B0022C2
:1099500043F82020704700BF00E100E0EC12002037
:1099600038B5436800220446826093F906005D69B9
:10997000E260904202DBFFF7D9FF636893F90700CA
:10998000002801DBFFF7D2FF95F90600002801DB74
:10999000FFF7CCFF95F90700002801DBFFF7C6FFB2
:1099A0002368002018821880EFF31082012383F3CC
:1099B0001088646805492488CD68C4F11004A34068
:1099C0002B43CB60CB6882F3108838BDFC6F04401A
:1099D0000A882DE9F84305460C464E694879C9685E
:1099E000A96152022169296202F1804202F5B8227E
:1099F0000021E961A1782A6032796C600302920744
:109A000043F04003F27843EA413348BF43F48063B4
:109A1000002A6ED043F42073022808BF38499BB255
:109A200008BF31F82200AB8218BF00202279E1780C
:109A300096F801E03778D20342EA410242EA4E1E2C
:109A4000EFF3108C012181F31088DFF8BC802288AD
:109A5000D8F80C90C2F1100201FA02F229EA0202CF
:109A6000C8F80C20D8F80C208CF3108896F804C0A5
:109A70002A6847F6FF581FFA8EFE03EA08031CF017
:109A8000020F13801082A2F80EE0177309D04CF079
:109A9000030C82F88AC0084600F0EEF82A6896F8AF
:109AA00004C094F9060082F88AC0002803DB2A4625
:109AB000217AFFF711FF94F90700002803DB617A90
:109AC0002A46FFF709FF96F90600002803DB2A461D
:109AD000317AFFF701FF96F90700002803DB717A5E
